:020000040800F2
:10000000300A0020E5020008D73A0008D53600087B
:10001000D53A00085D270008853B00080000000075
:10002000000000000000000000000000DB3A0008B3
:100030005F27000800000000D93A0008DD3A0008F8
:10004000FF020008FF020008FF020008FF0200088C
:10005000FF020008FF020008FF020008FF0200087C
:10006000FF020008FF020008FF020008FF0200086C
:10007000FF020008FF020008FF020008FF0200085C
:10008000FF020008FF020008FF020008FF0200084C
:10009000FF020008FF020008FF020008FF0200083C
:1000A000FF020008FF020008FF020008FF0200082C
:1000B000FF020008FF020008FF020008FF0200081C
:1000C000FF020008FF020008FF020008FF0200080C
:1000D000FF020008FF020008FF020008FF020008FC
:1000E000FF020008FF020008FF020008FF020008EC
:1000F000FF020008FF020008FF020008FF020008DC
:10010000FF020008FF020008FF020008FF020008CB
:10011000FF020008FF020008FF020008FF020008BB
:10012000FF020008FF020008FF020008FF020008AB
:10013000FF020008FF020008FF020008FF0200089B
:10014000FF020008FF020008FF020008FF0200088B
:10015000FF020008FF020008FF020008FF0200087B
:10016000FF020008FF020008FF020008FF0200086B
:10017000FF020008FF020008FF0200080000000064
:10018000FF020008FF02000800F002F800F09AF8F1
:100190000AA090E8000C82448344AAF10107DA45E2
:1001A00001D100F08FF8AFF2090EBAE80F0013F09A
:1001B000010F18BFFB1A43F0010318475444000015
:1001C00074440000103A24BF78C878C1FAD85207A6
:1001D00024BF30C830C144BF04680C6070470000C1
:1001E0000023002400250026103A28BF78C1FBD840
:1001F000520728BF30C148BF0B6070476E2900F01E
:100200005D83702900F0B184662904F06C81652952
:1002100004F06981672904F06681612904F0658131
:1002200003681B0A28BF41F08001692900F0108192
:10023000642900F00D81752900F00A816F2900F012
:100240003E84782900F07D84E92900F0D983E429EF
:1002500000F0D683F52900F0D383EF2900F03B842A
:10026000F82900F07C840368DB0928BF41F0800195
:10027000632901F06180732901F06680E32901F0B0
:100280007180F32901F07680002070471FB504F0DB
:1002900025F99DE8030001F04BFC01F08FF9040003
:1002A0000020002103F0E6FF401C606000200021D8
:1002B00003F0CAFFE06001F065F81FBD10B501F062
:1002C000CAF810BD01F04DF91146FFF7DFFF03F04A
:1002D0005BFF01F0FBFB03B4FFF7F0FF03BC01F091
:1002E000D9FD00000948804709480047FEE7FEE7BE
:1002F000FEE7FEE7FEE7FEE7FEE7FEE7FEE7FEE7D6
:1003000004480549054A064B70470000753B000844
:100310008901000830040020300A00203006002047
:100320003006002053EA020C00F069802DE9F04B02
:100330004FF00006002B1FBFB3FA83F503FA05F454
:1003400024FA05F65E4012BF1643B2FA82F502FAAD
:1003500005F4C5F120051EBF22FA05FC44EA0C0491
:10036000203556EA044C4FEA144418BF641C4FF081
:1003700000084FF00009904271EB030C39D30029BB
:1003800019BFB1FA81F701FA07F6B0FA80F700FA5F
:1003900007F6C7F120071EBF20FA07FC46EA0C0645
:1003A0002037B6FBF4FCA7EB0507103F07F01F0B47
:1003B000CBF120060CFA0BFB2CFA06F644BFB34631
:1003C0000026202FA4BF5E464FF0000B5BEA060C10
:1003D00008BF4FF0010B19EB0B09ABFB027C48EB9C
:1003E0000608C01B06FB02CC0BFB03CC71EB0C0117
:1003F000C1E70B46024641464846BDE8F08B13B5BF
:100400004FF000004FF00001AFF30080BDE81C404A
:10041000704700001CB50C46064B7B4469460090B3
:10042000204600F064FA04460020694600F072FAA3
:1004300020461CBDF70400000FB4044910B503AA00
:10044000029800F06DFA10BC5DF814FB2403002044
:100450002DE9F0410646002410687529314616A59D
:1004600010D000F097F9002802DA404213A507E007
:1004700031688A0701D512A502E0490704D511A504
:10048000012401E000F08FF900210A2206F124077F
:1004900009E0B0FBF2FCB0FBF2F302FB1C003030D1
:1004A00078541846491C0028F3D123462A46304682
:1004B000BDE8F04100F0A9B9000000002D000000E7
:1004C0002B000000200000002DE9F05F8946044663
:1004D0004FF0000ADFF874B1FB44C0F820A02046BA
:1004E000E1688847002874D0252806D0D4E9012186
:1004F0009047206A401C2062F1E700265F462046B4
:10050000E16888472028054607DB312D05D2781998
:1005100010F8200C08B10643F1E7B00701D526F02A
:100520000406C4F81CA00027C4F818A02A2D09D07E
:10053000284603F050FB38B304EB8708303DC8F879
:10054000185019E059F8041B204604EB870291610A
:10055000E1688847012F054618D1E069002820DAB4
:1005600026F020061DE0D8F8180000EB800005EB0F
:1005700040003038C8F818002046E1688847054632
:1005800003F029FB0028EED1012F0AD02E2D08D12F
:100590002046E16888477F1C0546022F46F020066A
:1005A000C4DBA069002803DA404246F00106A061DE
:1005B000F00701D026F010066C2D0BD0682D09D065
:1005C0004C2D39D06A2D35D0742D35D07A2D33D0BD
:1005D00016E038E0E1682F4620468847B8420546D5
:1005E00009D16C2F26D04FF48060E1680643204685
:1005F0008847054604E06C2F1AD04FF480700643FC
:100600000DB3A5F14100192802D8203546F4006643
:100610004A462946204626604E46FFF7EFFD80B148
:1006200001280BD0F61D26F0070000F1080956E757
:100630004020E4E78020D8E70020D6E706F104094F
:100640004DE7284652E7206ABDE8F09F2A400000A7
:1006500010B5431C02E010F8011B71B18107FAD1FB
:100660004FF0013202C88C1A8C4314EAC211F9D03F
:10067000C01A0A0603D0C01E10BDC01A10BD0A045D
:1006800001D0801E10BD0902FCD0401E10BD10B567
:10069000203AC0F00B80B1E81850203AA0E818507A
:1006A000B1E81850A0E81850BFF4F5AF5FEA027C3B
:1006B00024BFB1E81850A0E8185044BF18C918C0AA
:1006C000BDE810405FEA827C24BF51F8043B40F84B
:1006D000043B08BF7047D20728BF31F8023B48BF30
:1006E00011F8012B28BF20F8023B48BF00F8012B6E
:1006F00070474FF0000200B51346944696462039E5
:1007000022BFA0E80C50A0E80C50B1F12001BFF4CA
:10071000F7AF090728BFA0E80C5048BF0CC05DF830
:1007200004EB890028BF40F8042B08BF704748BF7E
:1007300020F8022B11F0804F18BF00F8012B7047F2
:1007400070477047704770B5044685690068C106F8
:1007500001D5302600E02026C00707D070BDD4E9BF
:10076000012130469047206A401C20626D1EF6D55C
:1007700070BD70B5044685690078C00707D170BDAB
:10078000D4E9012120209047206A401C20626D1E80
:10079000F6D570BD09684A0501D540B27047C90554
:1007A000FCD500B2704709684A0501D5C0B2704750
:1007B000C905FCD580B2704770B50C460546012AC4
:1007C00005D02878800600D5EA69002302E00123DD
:1007D00005E05B1C934202D2E05C0028F9D1A869D5
:1007E000E618C01AA861286A184428622846FFF74C
:1007F000AAFF04E0D5E9012114F8010B9047B442A7
:10080000F8D32846FFF7B5FF70BD2DE9F0470D4638
:1008100099469246044600F124080168880604D5EA
:10082000E06921F01001216000E00120A84201DD13
:10083000471B00E00027A1697A1902EB0900081A9A
:10084000A0612078C00602D42046FFF77CFF002676
:1008500008E0D4E901211AF806009047206A401CFC
:10086000761C20624E45F4DB2078C0060AD520466F
:10087000FFF769FF06E0D4E9012130209047206AA4
:10088000401C2062381EA7F10107F4DC07E0D4E920
:10089000012118F805009047206A401C2062281E9C
:1008A000A5F10105F3DC2046FFF763FF2078000681
:1008B00002D50220BDE8F0870120FBE7116802683D
:1008C000006A530501D508700AE0D30501D50880F8
:1008D00006E0130603D5C217C1E9000200E0086074
:1008E0000120704701694A1C02610878704700B511
:1008F0008FB0CDE901310021059105497944CDE959
:10090000031011466846FFF7DFFD0FB000BD000081
:10091000E5FFFFFF0A6802F8010B0A60704700005C
:10092000074B70B50D467B44FFF7E1FF04462846B0
:1009300000F024FD10B14FF0FF3070BD204670BDB7
:10094000CB3600002DE9FF5F15468A460446DFF8E6
:10095000AC80F8440027D8E900103E46CDE90010ED
:1009600010E03AF816106A4602A800F0A7FD411CF4
:1009700007D02178890603D5E269391891420DD84C
:100980000744761C2078800602D5E069B84205DD70
:10099000AE42E6DB3AF816000028E2D1A069C01B9F
:1009A000A0612046FFF7CFFED8E90010CDE9001086
:1009B000002017E03AF818106A4602A800F07EFD01
:1009C000B0F1FF3F81460BD000250DF1080B05E08B
:1009D000D4E901211BF8050090476D1C4D45F7D364
:1009E00008F10100B0428046E4DB206A384420620E
:1009F0002046FFF7BEFEBDE8FF9F0000C23B00009F
:100A00002DE9F0418046D21D22F007020025D2E9EF
:100A10000002F52915A614D0011E72F1000106DAB4
:100A20000023D0EB030063EB020211A608E0D8F824
:100A300000108B0701D50FA602E0490701D50EA6CD
:100A400001251146002408F1240704E000F098F87D
:100A500030323A55641C50EA0102F7D12B46324637
:100A600021464046BDE8F041FFF7CFBE0000000040
:100A70002D0000002B0000002000000030B40021F9
:100A800000F1240408E002F00705D208303542EAFC
:100A90004372DB086554491C52EA0305F3D104682C
:100AA000002310A2250707D5A40600D421B1C469EC
:100AB00001230DA2641EC46130BCFFF7A6BE10B5B1
:100AC000044621461068FFF76EFE02462046BDE848
:100AD00010400023D2E7D21D22F00701D1E9002304
:100AE000CCE700000000000030000000F0B40D462C
:100AF0000188090502D5214C7C4402E01F4C7C444E
:100B00000E34002100F1240608E002F00F0712095C
:100B1000E75D42EA03721B097754491C52EA030756
:100B2000F3D102780023120704D5702D06D009B145
:100B3000022311342246F0BCFFF767BE01231034B4
:100B4000F8E770B504460D4621461068FFF72BFE06
:100B5000024629462046BDE870400023C6E7D21D64
:100B600022F00703D3E90023C0E70368126843F0CB
:100B7000200303600823C3610023B7E7243A000081
:100B800030B5B0F10A024FEA900E71F100034EEA5F
:100B9000817EB0EB0E0061EB91014FEA101E4EEA30
:100BA000017E10EB0E0041EB11114FEA102E4EEAC0
:100BB000016E10EB0E0041EB11214FEA104E4EEA90
:100BC000014E10EB0E0041EB1141401841F10001C4
:100BD0004FEAD00040EA41704FEAD10110EB8005A6
:100BE0004FEA810444EA907444EB01046D1944EB2C
:100BF0000404521BA3414FF0000348BF0A3200D542
:100C000030BD401C41F1000130BD70472DE9FF4F60
:100C10000C461E464FF0FF378BB0D2E90001DDF8DD
:100C200060800A908A46C1F30A5505B93D46002105
:100C300008464FF00000BAF1000F00F4400005DA5A
:100C400000EB80004FF4400101EA50004FEA905958
:100C5000B9F1010F00DDB9460A9850EA4A000ED0FA
:100C600044F61050A5F2FF3545432F14B8F1000F9C
:100C70001ED07542291E1EDDC9F100021CE0B8F12C
:100C8000010F4FF0000001D0302103E0F24305E0F6
:100C90002154401CB042FBDB30460022002121548D
:100CA0000B99C1F80880C1E900200FB0BDE8F08FB2
:100CB000BD1B6D1CDEE74A4600DA694206A800F05B
:100CC000E9FC06AB93E8070003AB83E80700504656
:100CD0000A9901F07BF98DE80700A0F500501F3854
:100CE00000900398002D0ADD42F21F014A46084495
:100CF000002303A90390684601F0E4FB09E0A0F596
:100D000000504A461F38002303A90390684601F0AB
:100D1000EEFB8DE807000004000C03D04FF0FF301D
:100D2000410800E01046B8F1000F03D00022009205
:100D300015461EE0751E05D4FFF722FF30326255BE
:100D40006D1EF9D5B3460122084302D000227F1C54
:100D500004E02078302801D100227F1E002A099764
:100D600084D01DE0112D07DAFFF70AFF30326255FB
:100D70006D1C50EA0102F5D1084302D00098C8B1B9
:100D80000EE00021681E05E0235C625C635422547F
:100D9000401E491C8142F7DBAB46A81B401E099050
:100DA000002004F80B000B98099AC0F80880C0E9ED
:100DB000002B7AE711264FF0000857E72DE9F04F96
:100DC00088460446D21D22F0070191B0D1E9000106
:100DD000CDE90A0102F0D7FE02460B98C00F01D000
:100DE0002D2007E02068810701D52B2002E020217B
:100DF00001EAC000032A099001D0072A05DB034657
:100E00004146204600F006FC0BE12078800601D523
:100E1000E06900E00620B8F1650F814606D0B8F120
:100E2000660F18D0B8F1670F70D131E00020B9F12A
:100E3000110F009001DB112301E009F101030AAA5F
:100E400001A90CA8FFF7E2FEDDE90C70002609F10C
:100E50000105834647E001204B4600904FF00047D4
:100E60000AAA01A90CA8FFF7D1FEDDE90DB00C9983
:100E70005D46002610B909F101000D18B9EB050017
:100E800003D4C0F1FF3609F10105A5EB09002BE001
:100E9000B9F1010F01DA4FF001090020B9F1110F8A
:100EA0000090484601DD112300E003460AAA01A98B
:100EB0000CA8FFF7ABFEDDE90C704D46002683461B
:100EC000207800070AD4AB4500DA5D4601A8012D61
:100ED00004DD411911F8011C302907D04F4502DA11
:100EE00017F1040F04DA012082460FE06D1EEEE7D1
:100EF000002F02DCED1B3E4403E0781CA84200DD1D
:100F00007D1CB81B00F1010A4FF000472078000754
:100F100003D4AA4501DB4FF0FF3A0021B7F1004F9F
:100F20000DF143088DF8431024D002202B23002F0D
:100F300001DA7F422D230A21021EA0F1010000DC0C
:100F40005FB197FBF1FC97FBF1F201FB1C7C1746AC
:100F50000CF1300C08F801CDEEE7A8F101000370A8
:100F60002188090501D5452100E06521A0F101088E
:100F700000F8011C09980FA9A1EB0807FF1D00B19B
:100F80000120411901EBEA70A1693844081A401E9A
:100F9000A0612078C00602D42046FFF7D4FB099850
:100FA00028B1D4E901219047206A401C20622078B2
:100FB000C00622D52046FFF7C6FB1EE0002E04DB4C
:100FC000B34502DD01A8805D00E03020D4E90121B5
:100FD0009047206A401C2062761CAAF101005FEA5B
:100FE000000A0AD100F0EAFAC0680168405CD4E95E
:100FF00001219047206A401C2062281EA5F10105AE
:10100000DCDC07E0D4E9012118F8010B9047206AE5
:10101000401C2062381EA7F10107F3DC2046FFF7D1
:10102000A8FB032011B041E62DE9F04F04460D4620
:10103000D21D22F0070089B0D0E900974846394612
:1010400002F0A1FD0246F80F01D02D2307E0206831
:10105000810701D52B2302E0202101EAC0038DF88E
:1010600020300BB1012000E00020032A824601D08D
:10107000072A04DB2946204600F0CCFA3FE120781D
:10108000800601D40D2500E0E569C7F30A560D2D51
:1010900049DA00214FEA175B08464FF00000002FA5
:1010A00000F4400007DA00EB80004FF4400100EB51
:1010B000D07001EA60008115012901DD4FF0FF3198
:1010C00000224FEA850CBCF1180F06D31346ACF191
:1010D00018004FF08052C24003E04FF4801323FA0F
:1010E0000CF30CF10C0CBCF1200F04D3ACF1200C70
:1010F00009FA0CF001E007FA0CF000294FF0004863
:1011000001DD18B90FE00ED140450CD319EB0209EF
:101110005F4121B9404502D19F4329EA0209BBEB57
:10112000175F00D0761C2088000502D57B487844E4
:1011300002E07A487844193808AA302302F80A30C5
:10114000037C0AF10101002E0AF1020A53546A4697
:1011500002DC4FF0300101E04FF031014FF00108A7
:101160008DF8001002D0A6F2FF3603E059EA4701DD
:1011700000D06B4E002D02DC2178090704D54FF01A
:1011800002082E218DF80110C44600210BE0C7F3A0
:1011900003433F01C35C491C6D1E02F8083005295A
:1011A00008F1010801DA002DF1DC00210CE000EB70
:1011B0001973491C1B786D1E082902F808304FEA84
:1011C000091908F1010801DA002DF0DC21688B060D
:1011D00002D516E0A8F10108E04505DD02EB0803A1
:1011E00013F8013C302BF5D0B8F1000F09DD02EB0C
:1011F000080313F8013C2E2B03D1090701D4A8F1F1
:101200000108002D05DD3E2102F808106D1E08F1D1
:101210000108407C002E02F8080008F1010804DAF9
:101220002D20764202F8080002E02B2002F8080088
:101230000A214FF47A70864208F101080BDB96FB15
:10124000F0F3303302F8083096FBF0F308F10108B0
:1012500000FB136601E0642E0CDB642096FBF0F3C8
:10126000303302F8083096FBF0F308F1010800FB78
:10127000136601E00A2E06DB96FBF1F0303002F82F
:10128000080008F1010896FBF1F001FB1060303016
:1012900002F80800A16908F1010808EB050202EB59
:1012A0000A00081AA0612078C00602D42046FFF781
:1012B0004AFA216A08AE01EB0A00206204E0D4E990
:1012C000012116F8010B9047BAF1010AF7D22078F4
:1012D000C00602D52046FFF736FA6E4609E016F83A
:1012E000010B3E280FD0D4E901219047206A401C11
:1012F0002062B8F10108F2D22046FFF73AFA09B0AD
:101300000320BDE8F08F206A2844206203E0D4E97E
:101310000121302090476D1EEBD3F8E729340000FF
:1013200002FCFFFF10B5436913B1AFF3008001E089
:10133000FFF742FA012010BD127800F124010A7073
:1013400000224A700122EDE711684FF0FF32E9E711
:1013500010B5436913B1AFF3008001E0FFF7F2FA73
:10136000012010BD128800F1240182840022C28471
:101370000122EDE711684FF0FF32E9E7007B00F052
:101380008000704710B542485421FFF7B2F9414838
:101390005421FFF7AEF940485421FFF7AAF93F491D
:1013A0003B483C4A3F4B08603D490A603A49196056
:1013B000531C0365481C1065012008653B48344AEE
:1013C00039A1784400F0E6FA20B9384878440A3860
:1013D00000F085FB37482F4A35A1784400F0DAFA4F
:1013E00020B9344878440A3800F079FB32482A4A58
:1013F0002FA1784400F0CEFA20B92F4878440A385B
:1014000000F06DFB40232248DC000021224600F062
:101410009EFA20B125487844543800F060FB1D48FE
:1014200022464023002100F092FA20B1214878445E
:10143000543800F054FB184822461023002100F0D5
:1014400086FA002806D01C487844BDE8104056387B
:1014500000F045BB10BD104870B5006D20F00104D0
:101460000B4800F00DFB0B4800F00AFB0A4800F0A7
:1014700007FB09E0206D20F00105204600F000FB8D
:10148000204600F09FF82C46002CF3D170BD0000E0
:10149000D002002024030020780300201C0000203C
:1014A000200000202400002072000000A83100006D
:1014B00077000000943100008031000070B51646BE
:1014C0000C46054600F072F8036893F80101012804
:1014D00006D0FF2C0FD8185D68B101202C7070BDAC
:1014E000D3F807013246214603F207130344284686
:1014F000BDE8704018474FF0FF3070BD0EB5CDE924
:101500000001FFF7A5F8029069460120ABBE0EBDB1
:1015100008B5694600900220ABBE08BD1FB58DE836
:10152000070069460520ABBE04B010BD1FB58DE8AD
:101530000F0069460620ABBEF6E708B56946009085
:101540000920ABBE08BD1CB5CDE9000169460A20E3
:10155000ABBE1CBD704708B5694600900C20ABBE01
:1015600008BD754600F0C2FAAE460500694653460E
:1015700020F00700854618B020B5FEF7C1FEBDE893
:1015800020404FF000064FF000074FF000084FF0EA
:10159000000B21F00701AC46ACE8C009ACE8C0097B
:1015A000ACE8C009ACE8C0098D46704710B500F042
:1015B00005F8001D10BD00BFBD2C0000004870479D
:1015C000EC03002070B50446051F00F095FA006892
:1015D000002C14BF446870BD002C18BFAC423CBF47
:1015E00020466468F8D301680A18AA4218BF45600B
:1015F00003D12A6805461144016028684119A142B7
:101600001CBF6C6070BD6168696021680844286017
:1016100070BD00002DE9F0411F4604460326016815
:10162000072A01F4006004DB08B116A505E016A541
:1016300003E008B115A500E015A521F01000206019
:10164000A069C01EA0610FB1401EA0612046FFF737
:101650007AF84FB1D4E9012138469047206A401CFE
:101660002062C01C206206E0206AFAE7D4E901216A
:1016700015F8010B9047761EF8D22046FFF779F84F
:10168000BDE8F0814E414E006E616E00494E46004D
:10169000696E66002DE9F047814616468AB03548E6
:1016A00078440DC88DE80D0032487844801C03ACA6
:1016B0000DC884E80D0041F69B300844372190FBAB
:1016C000F1F290FBF1F5A5F1800501FB12041B3C42
:1016D00002D56442012000E00020DFF898A0804697
:1016E0000027FA44AAF1BE0A0EE0E0070AD032460B
:1016F000684607EB470101230AEB810100F0F7FE82
:101700008DE8070064107F1C002CEED1194F7F4438
:10171000AE3F19E0E80715D007EB04100DF1180AE9
:1017200090E80E008AE80E00C068F04201D19819D6
:1017300008903246012306A903A800F0D8FE03ABA7
:1017400083E807006D10641C002DE3D14FF0010306
:1017500032466946B8F1000F03A802D000F0B2FE8D
:1017600001E000F0C4FEC9E90001C9F808200AB090
:10177000BDE8F087542F00002DE9F04705460C46E0
:10178000C86820F4201040F48000C860800602D5AC
:10179000084600F0FEFAE06841F282014FF0FF399E
:1017A0000140022903D0204600F09CFAB5E000F485
:1017B0002041B1F5004F0FD1C00306D56168E06A42
:1017C000884200D80846606006E02069E0626060F8
:1017D0006069FFF7C0FEA061A0680022EEB2002899
:1017E0000DDAE1688B050AD4C043A06041F4903063
:1017F0002260E0606068411C61600670A5E0E068FE
:101800009046226040F40050E060206968BB606947
:10181000FFF793FE012704F12405A0B1A08910F47D
:10182000407F08D0E06900F0B2F9206118B1E068AB
:1018300040F4006016E0E7612561E06820F4407044
:1018400040F480600EE0E06900F0A1F9002820611A
:10185000F1D0E06840F4006010F4407FE06002D115
:1018600040F48070E06020696060E06825696FF096
:10187000010AC1051FD56168E06A884200D80846A0
:10188000411B04D02246284600F036FAF0BBE0683F
:10189000010203D5E562C4E9015854E0691CE16224
:1018A0006160E16940F48030491EC4E902103046AD
:1018B0002E70BDE8F087010202D500F480320AE004
:1018C0006068411C61600670E0680A2E40F4803058
:1018D000E06006D00022E16A6068814203D90B46CD
:1018E00002E00122F7E70346A7895B1B7F0503D4CB
:1018F000E7699F4200DDE2B1814200D80146E5621E
:101900000F1AC4E90158002B09DD00E005E022466A
:101910001946284600F0F0F908B14846C9E747B132
:10192000A069E5626560C01BA061E06840F010003E
:10193000E060E068000208D56168A069E562491BC3
:1019400008446560A0615046B3E73046B1E770B522
:10195000C468A50713D0650211D4B2F5807F09D001
:10196000B2F5007F06D0B2F5806F08D1012300F1F7
:10197000240106E05D1E6FF07F46B54201D30120D1
:1019800070BD0161C361416024F470611143C160A5
:10199000002070BD2DE9F0410C4607461646104662
:1019A00000F06EF82078611C61280AD0722802D0FD
:1019B00077283CD102E00125002405E0022504241B
:1019C00002E0082448F2020511F8010B2B2806D08A
:1019D000622809D011F8010C74280AD00BE045F0F8
:1019E000030544F00204EFE745F0040544F0010468
:1019F000EAE744F0100438462146FFF77FFD411C1A
:101A000015D00021316171604FF40071F560F16112
:101A10007061200704D530460222002100F0E6F86C
:101A2000306D40F0010030653046BDE8F0810020A7
:101A3000FBE72DE9F0410D460646104C206DC1072D
:101A400004D0410804D020F00104F7E722460EE05C
:101A5000542000F09CF807000ED0206D47F00101E3
:101A60000843542120653846FEF743FE3A4629468E
:101A70003046BDE8F0418DE70020D6E7D0020020D7
:101A80002DE9F04704464FF000094FF0FF37C568D5
:101A9000D4E90486A80707D0204600F057F930465D
:101AA000FFF736FD002802DA3846BDE8F087280542
:101AB00002D54046FFF786FD4C212046FEF719FE71
:101AC000206D20F0010020654846EEE710B5044681
:101AD000AFF300802046BDE81040FEF7FCBB10B518
:101AE00000F07EF9BDE8104000F074B9004870477E
:101AF000CC0300207047000000487047D40300204A
:101B0000704770477047704738B504460A46002052
:101B10006946AFF30080002808BF38BD024600992F
:101B2000204600F0C4F9012038BD012000F013BAAE
:101B3000F8B5AFF30080054600200C46102000BF2A
:101B40000646A819A0420DD9324669460020AFF3D7
:101B50000080070008BF00F0FEF90098A04218BFFF
:101B60000546C419FFF7C8FF05600746F01D20F0C1
:101B700007004619284600F093F9B44208BFF8BDA3
:101B8000A21B31463868BDE8F84000F090B970B546
:101B90000646FFF7B1FF056806F10B0020F00704C9
:101BA000B4429CBF002070BD2B466A68BAB1106871
:101BB000A04210D304F1080188423CBF506858602D
:101BC00007D35168101941601168091B0160586002
:101BD0001460101D70BD13465268002AE7D12146DB
:101BE0002846FFF791FF0028DED170BD2DE9F041B6
:101BF000044616460D464769007B80072ED03846BE
:101C0000FFF79BFC50BB3EB3012E02D0022E25D124
:101C100004E0204600F065F905441DE03846FFF772
:101C20009AFCE168002841F01001E16005DA2046E5
:101C300000F058F80120BDE8F081C9030BD56268B7
:101C4000E16A914200D81146A26911442269891AB9
:101C5000814200DD08460544002D01DA0220EAE752
:101C6000E16A6068E268814206D29103E06203D5CE
:101C700022F4003141F01002A6690027AE4213DCC5
:101C8000E16A814201D90B4600E0034603EB060CF2
:101C90002369ACEB030CAC4506DD814201D98C46CF
:101CA00000E084469C4505D1A760276042F02000F3
:101CB000A5620DE0AD1BE669AE1B8142A66000D9AE
:101CC0000846C01A281A20605819606022F02000C7
:101CD00003490840E060002084F84870ABE700004A
:101CE000BFCFD7FFC16821F4001141F08001C1606E
:101CF00000218160016070472DE9F047814614465C
:101D00000E464FF0FF383248D5685769054209D072
:101D10003846A169FFF717FC002811DB2C48C043A7
:101D20000540E5602B46324649463846FFF7F6FB4C
:101D3000A16920F00042B21A11440028A16103D029
:101D40002046FFF7CFFF4046BDE8F08770B5044658
:101D50000569C06A6168884200D80846E16821F4D4
:101D60002011E160C90312D5A84208D02246411BC8
:101D70002846FFF7C1FF10B14FF0FF3070BD0020C3
:101D8000E562C4E90150E06820F48030E0600020A2
:101D900070BD10B50446C06820F02000E060A16A64
:101DA000A06988420DD02046FFF7D0FFE06820F4FC
:101DB000405040F01000E060A06AA0612069E0623D
:101DC000606044F24001E0688843E06010BD0000BC
:101DD00010000200002801D000F05CB8704700003D
:101DE00010B5014602A000F09DF8012010BD0000D2
:101DF00053494752545245443A20526564697265CA
:101E000063743A2063616E2774206F70656E3A20A8
:101E1000000000004FF0013C50F8042B51F8043B47
:101E20009A4221D1A2EB0C03934313EACC1317D1AE
:101E300050F8042B51F8043B9A4215D1A2EB0C0345
:101E4000934313EACC130BD150F8042B51F8043B05
:101E50009A4209D1A2EB0C03934313EACC13DBD0D3
:101E60004FF00000704700BFD01A01BAB1FA81F1FB
:101E700001F0180122FA01F0CB40C1F12001DBB2E0
:101E8000C0B2C01A2CFA01F3D11A914311EAC3115E
:101E9000E6D1704701491820ABBEFEE726000200DC
:101EA00000210160C0E9011070471020704703460F
:101EB00040688C46002818BF88423CBF03464068F3
:101EC000F8D318681844884207D00CF1030020F0BA
:101ED0000700001D411A521A0146081D0A60FFF74B
:101EE00071BB10B50146C268900703D0900607D5B4
:101EF000886A0AE000F03EF801210160881E10BDEA
:101F00008B69486818440B69C01A91F848301BB1B6
:101F100091F84910401A10BD1103FCD50028FADDD4
:101F2000401E10BD70B505460C460A2000E06D1C31
:101F300000F018F835B128780028F8D102E0641CC8
:101F400000F010F814B120780028F8D1BDE87040F6
:101F50000A2000F007B810B500F010F8BDE81040F6
:101F6000FFF738BF08B569468DF800000320ABBE07
:101F700008BD000000487047CC03002010B50128C0
:101F800005D0002103A0FFF7CDFF012010BD09A15E
:101F9000F8E7000053494752544D454D3A204F75DC
:101FA00074206F662068656170206D656D6F727951
:101FB000000000003A2048656170206D656D6F7209
:101FC0007920636F72727570746564005FEA400C0B
:101FD00008BF91F0000F4FEA8C234FEAC12243EA79
:101FE00051514FEA1C5018BF00F5F0404FEA300045
:101FF00018BF41F000415FEA6C5C00F02980BCF141
:10200000FF3F08BF40F080407047130C06BF12042A
:102010004FF0100C4FF0000C130E04BF12020CF125
:10202000080C130F04BF12010CF1040C930F04BF32
:1020300092000CF1020CD30F04BF52000CF1010C02
:1020400011464FF00002A0F11F00A0EB0C007047FA
:1020500011F0004F08BF704731F000413FF4D5AF99
:102060000B0C06BF09044FF0100C4FF0000C0B0EC8
:1020700004BF09020CF1080C0B0F04BF09010CF19D
:10208000040C8B0F04BF89000CF1020CCB0F04BFB2
:1020900049000CF1010CCCF12003A0EB0C0022FA5A
:1020A00003F302FA0CF241EA030100F10100704768
:1020B00020F07F4C80EA030023F07F47ACEB07035E
:1020C00003F57C5300F0004003F1FF032DE9804944
:1020D0004FEA154B09B44FEA144325EA0B4E24EAA4
:1020E00003480FF2042606EB132749083E785FEAFF
:1020F000320203FB0667C7F5000707FB06F64FEA47
:1021000054374FEAD64606F1020607FB066CCCF1BF
:10211000005C4FEA1C472CEA074C07FB06F40CFB5B
:1021200006F504EB15464FEA961634BF00204FF033
:1021300000404FEAD13706FB07FC4FEA1C4C0CFB72
:102140000BF7D21B03FB0CF761EB07010CFB0EF73F
:10215000B0EB074072EB17420CFB08F734BFA2EB61
:102160000742B2EB074261EB17414FEA0C444FEADA
:10217000910706FB07FC4FEA1C4C0CFB0BF7B0EB7E
:10218000C74072EB573203FB0CF734BFA2EBC742D8
:10219000B2EBC74261EB57310CFB0EF7B0EBC70057
:1021A00072EB57720CFB08F734BFA2EBC702B2EB1D
:1021B000C70261EB5771039F4FEA816141EA9211B7
:1021C00004EBCC044FEAD1374FEA826206FB07FCEE
:1021D00042EA90124FEA80604FEA1C4C0CFB0BF76E
:1021E000D21B03FB0CF761EB07010CFB0EF7B0EB06
:1021F000074072EB17420CFB08F734BFA2EB074213
:10220000B2EB074261EB17414FEA8C554FEA910759
:1022100004EB9C2406FB07FC4FEA1C4C0CFB0BF761
:10222000B0EBC74072EB573203FB0CF734BFA2EBA5
:10223000C742B2EBC74261EB57310CFB0EF7B0EB74
:10224000C70072EB57720CFB08F734BFA2EBC70252
:10225000B2EBC70261EB577115EB4C254FEA816178
:1022600041EA92114FEA82624FEAD13742EA901274
:1022700006FB07FC44F100044FEA80604FEA1C4C67
:102280000CFB0BF7D21B03FB0CF761EB07010CFBFC
:102290000EF7B0EB074072EB17420CFB08F734BFA8
:1022A000A2EB0742B2EB074261EB174115EB1C159D
:1022B0004FEA813141EA92414FEA823242EA90424A
:1022C0004FEA80304FEA0C7644F1000448EA0343B9
:1022D0004EEA0B484FF0000EB2EB080C71EB03070F
:1022E00024BF624639464EEB0E0E4FF0000B00182D
:1022F000524149414BEB0B0BB2EB080C71EB03075E
:102300007BF1000B24BF624639464EEB0E0E4FF0B8
:10231000000B0018524149414BEB0B0BB2EB080C80
:1023200071EB03077BF1000B24BF624639464EEB8D
:102330000E0E51EA020718BF46F0010616EB0E76A4
:1023400055F1000254F1000103D5BDE88901BDE853
:102350000088BDE88901BDE80048B619524141EB4B
:102360000101A3F10103704780807F7E7D7C7B7A31
:102370007978777676757473727171706F6E6E6D31
:102380006C6C6B6A6A6968686766666564646363D7
:1023900062616160605F5F5E5E5D5D5C5C5B5B5A5D
:1023A0005A595958585757565655555554545353CA
:1023B00052525251515050504F4F4F4E4E4D4D4D25
:1023C0004C4C4C4B4B4B4A4A4A4949494848484770
:1023D00047474746464645454544444444434343AE
:1023E0004342424242414141002B9C4630D4770057
:1023F0002BD01CB54FEA370703B44FF010004FF055
:102400001001BAF1000F06D0BCF1000FDCBF40F0A4
:10241000080040F008014FF000000FBCBDE810407C
:102420000BF1010BBBF1010F08BF5FEA170722BFD9
:1024300012F1010211F101014FF0004143F10003DB
:1024400000F0004043EA00007047F9D35708D0E796
:1024500046EA064613F1400F4FEA16461FDD13F118
:10246000200FDFBF16430A46002120335B42BED057
:10247000C3F1200746EA064602FA07F74FEA164676
:1024800046EA0706C3F1200722FA03F201FA07F72A
:1024900021FA03F14FF0000342EA0702A7E746EAF8
:1024A000020646EA06464FEA164646EA0106BCBF61
:1024B00046EA0646360C4FF000034FF000024FF09C
:1024C000000194E72DE9804C9A46934670B491E858
:1024D000380007C831EA400C48BF34EA430C03D542
:1024E000FFF7E6FDFFF780FFF0BCBDE8008C2DE9AB
:1024F000804C9A46934670B491E8380007C810F0B3
:10250000804F08BF13F0804F03D100F005F8FFF7AC
:102510006BFFF0BCBDE8008C20F07F4780EA030031
:1025200023F07F4C07EB0C03A3F57C5300F0004035
:10253000A3F1FE0392F0000F00F0B38095F0000FBE
:1025400000F077802DE901494FEA11404FEA144627
:1025500021EA004800FB06FC24EA064708FB06F6D1
:1025600007FB08F800FB07F718EB06484CEB164C86
:102570004FEA124B18EB07484FEA15464CEB174051
:1025800022EA0B4E0BFB06FC25EA06470EFB06F67D
:1025900007FB0EFE0BFB07F71EEB064E4CEB164C33
:1025A0004FF000061EEB074E4CEB174B18EB0B08D9
:1025B00040F1000018EB0E0B58EB000840F1000052
:1025C0008F1A4FF000013CBFC943661B14BFB5EB27
:1025D000040C00213CBFC943F61B4FEA17444EEAE6
:1025E0008E0E27EA04454FEA1C4704FB07622CEADB
:1025F000074C05FB07F70CFB05F604FB0CFC16EB80
:10260000074642EB174216EB0C4642EB1C421BEB13
:10261000060658EB0202414146EA9E0601D5BDE896
:102620000189B619524141EB0101A3F10103BDE853
:1026300001894FEA14454FEA114724EA054621EA89
:10264000074C05FB07F406FB07F70CFB06F105FB3F
:102650000CFC11EB074144EB17444FEA124711EB16
:102660000C4144EB1C4422EA074C05FB07F206FB35
:1026700007F70CFB06F605FB0CFC16EB074642EBD6
:10268000174216EB0C4642EB1C456A1854F1000148
:1026900048BF7047B619524141EB0101A3F1010354
:1026A000704795F0000F37D04FEA11424FEA1447B8
:1026B00021EA024624EA074C02FB07F106FB07F772
:1026C0000CFB06F402FB0CFC14EB074441EB174136
:1026D0004FEA154714EB0C4441EB1C4125EA074C2B
:1026E00002FB07F506FB07F70CFB06F602FB0CFCEA
:1026F00016EB074645EB174516EB0C4645EB1C421F
:10270000121951F1000148BF7047B619524141EB0F
:102710000101A3F1010370474FEA14454FEA114745
:1027200024EA054621EA074C05FB07F106FB07F7FB
:102730000CFB06F24FF0000605FB0CFC12EB074207
:1027400041EB174112EB0C4251EB1C4148BF704763
:10275000921841EB0101A3F101037047FEE77047B6
:1027600070B5044600F006F90546601C02D0044826
:102770000078044400F0FEF8401BA042FAD370BD7C
:102780000C0000202DE9F84FDFF8BCA10022012544
:1027900003264FF00F090AF1040BAAF1040E00BF43
:1027A0000B6805FA02F42340A34270D10F7907F0B9
:1027B0000307012F01D0022F16D187684FEA420884
:1027C00006FA08FC27EA0C07D1F80CC00CFA08FC42
:1027D0004CEA070CC0F808C04768A7430C79C4F35B
:1027E000001494403C4344600C79E443A4070AD0AD
:1027F000C4684FEA420C06FA0CF7BC438F6807FA2C
:102800000CF72743C7600C7904F00304022C12D1A3
:10281000D40800EB840CDCF820405707FF0E09FABF
:1028200007F824EA0804D1F8108008FA07F848EA03
:102830000408CCF8208004684FEA420C06FA0CF732
:10284000BC430F7907F0030707FA0CF7274307602B
:102850004C6814F4403F70D03C4C276847F48047E4
:102860002760246822F0030704F480440094384C65
:1028700007EB040CDCF8084897074FEA177809FAC9
:1028800008F7BC43334FB84202D1002724E054E09C
:10289000314FB84201D101271EE0304FB84201D17B
:1028A000022719E02E4FB84201D1032714E02D4F23
:1028B000B84201D104270FE02B4FB84201D10527C0
:1028C0000AE02A4FB84201D1062705E0284FB84256
:1028D00001D1072700E0082707FA08F72743CCF8BB
:1028E0000878DAF800405746D1F804C09C435FEA04
:1028F000CC2C00D51C433C60DBF800405F46D1F88F
:1029000004C09C435FEA8C2C00D51C433C60DEF87D
:1029100000407746D1F804C09C435FEA8C3C00D568
:102920001C433C60084F083F3C68D1F804C09C43FE
:102930005FEACC3C00D51C433C60521C102AFFF4DB
:102940002FAFBDE8F88F0000083C0140443802403A
:102950000030014000000240000402400008024034
:10296000000C024000100240001402400018024017
:10297000001C024001488068704700000C000020E5
:10298000006C704790F83D007047000070B504007F
:1029900025D094F83D00002520B984F83C5020460D
:1029A00000F0F4FA242084F83D002068016821F04A
:1029B000010101602068016841F400410160206864
:1029C000016821F40041016000F078FC4D4A616823
:1029D000914201D84C4900E04C49884201D2012083
:1029E00070BD4B492368B0FBF1F15E6826F03F06ED
:1029F0000E435E606368934206D94FF49673594361
:102A00004FF47A73B1FBF3F12368491C1E6A26F078
:102A10003F06314319626168914210D84900401E57
:102A2000B0FBF1F2521CC2F30B02042A01D20420C3
:102A300022E0B0FBF1F0401CC0F30B001CE0A268E8
:102A4000F2B301EBC10303EB0116431EB3FBF6F334
:102A50005B1C43F480431B0549D092B301EBC102D8
:102A600002EB0111401EB0FBF1F0401CC0F30B0063
:102A700040F4804040F400402168CA694CF6FF737E
:102A80009A431043C861D4E90710014320680268E3
:102A900022F0C00211430160D4E903010143206820
:102AA000826848F2FF339A4311438160D4E90501FB
:102AB00008432168CA6822F0FF021043C86001E0A1
:102AC0000EE016E02068016841F001010160256414
:102AD000202084F83D00256384F83E50002070BD1E
:102AE00001EB4106431EB3FBF6F35B1CB3E7012089
:102AF000C2E701EB4101401EB0FBF1F0401CC0F306
:102B00000B00B7E7A086010080841E0000093D008D
:102B100040420F002DE9FF4F81B089460446FFF780
:102B200029FF054694F83D004FF0000820287DD18C
:102B30001923012250492046009500F0CDFE0028BF
:102B400074D194F83C00012870D0012084F83C0036
:102B500020680168C90703D1016841F001010160E3
:102B60002068016821F400610160242084F83D00A0
:102B7000002626644148E0624FF0011B20272068B0
:102B8000016841F480710160009500225946204699
:102B9000049B00F0A1FE50B120680068C00502D57A
:102BA0004FF400702064032005B0BDE8F08F216869
:102BB00009F0FE000861FFF7DDFE2168054648695F
:102BC0004969C0F34000C1F380214FF0A00A0FE033
:102BD000FFF7D0FE411B0498814200D808B984F861
:102BE0003DA0216848694969C0F34000C1F38021D4
:102BF00094F83D20A02A02D008B90029E8D084F832
:102C00003D7020684169C943890716D4016841F4C1
:102C10000071016020684169806919230122164909
:102C20002046009500F058FEB8B900E021E084F895
:102C30003D7084F83C600020B6E7016841F4007103
:102C4000016021686FF480604861192301220A49FC
:102C50002046009500F040FE08B10120A4E703984B
:102C600008F1010880458AD384F83D7084F83C60FF
:102C7000F3E7022098E70000020010000000FFFFC9
:102C80002DE9F84F1F4690468A460446DDF8289005
:102C9000FFF770FE054694F83D00202875D11923F2
:102CA00001226C492046009500F016FE0028F5D15F
:102CB00094F83C00012868D0012084F83C0020688A
:102CC0000168C90703D1016841F001010160206872
:102CD000016821F400610160222084F83D00102089
:102CE00084F83E0000262664C4F824806785608D41
:102CF00020855948E0622B464A465146204600F05E
:102D000001FD002878D1208D544F68B1012814D0DE
:102D100002282068016816D041F4806101602068B3
:102D200041698069009087E020684169816900916C
:102D3000016841F4007101607EE02068016821F4BF
:102D400080610160F0E721F4806101602068016822
:102D500041F40061E2E7032848D801280AD002289C
:102D600014D04B46002239462046009500F0B4FDB1
:102D7000D8BB27E02A464946204600F02CFEA0BBDF
:102D800020680069616A08704DE061E04B460022EE
:102D900039462046009500F09FFD30BB2068016851
:102DA00041F40071016020680069616A0870606A1E
:102DB000401C6062218D491E2185618D491E6185FF
:102DC00021682EE02068016821F48061016020689C
:102DD0000069616A0870606A401C6062208D401E54
:102DE0002085608D401E6085D0E705E02A46494673
:102DF000204600F0F0FD10B10120BDE8F88F2068FA
:102E00000069616A0870606A401C6062218D491E19
:102E10002185618D491E618521684A69D243520727
:102E20000AD409690170606A401C6062208D401EEE
:102E30002085608D401E6085208D00288BD120204C
:102E400084F83D0084F83E6084F83C600020D4E7BC
:102E50000220D2E7020010000000FFFF0400010082
:102E60002DE9F84F1F4690468A460446DDF8289023
:102E7000FFF780FD054694F83D0020287FD11923F7
:102E8000012240492046009500F026FD002876D119
:102E900094F83C00012872D0012084F83C0020689E
:102EA0000168C90703D1016841F001010160206890
:102EB000016821F400610160212084F83D001020A8
:102EC00084F83E0000262664C4F824806785608D5F
:102ED00020852D48E0622B464A465146204600F0A8
:102EE00087FC90B9206841698069009036E02A46E5
:102EF0004946204600F0A2FD50B1206C042804D1C0
:102F00002068016841F4007101600120BDE8F88F7C
:102F1000606A216800780861606A401C6062618DA7
:102F2000491E6185218D491E89B221852268536918
:102F3000DB435B070BD451B100781061606A401C21
:102F40006062608D401E6085208D401E20852A466F
:102F50004946204600F09AFC0028CED1208D00285A
:102F6000C5D154F83D0B016841F400710160202087
:102F700004F81E09E67766770020C7E7FFE702201E
:102F8000C4E70000020010000000FFFF2DE9F0413F
:102F900086B0044614216846FDF7ABFB2E4B226831
:102FA000DFF8B88000212D4812240325042608F1FB
:102FB00010089A421CD1026842F0020202600068C6
:102FC00002AA00F00200059082E86200A802CDE9A2
:102FD000000469462248FFF7D5FBD8F8001041F4F9
:102FE0008001C8F80010D8F8000000F480002FE03D
:102FF0001C498A422DD1016841F004010160016839
:1030000001F004010591016841F0010101600068CF
:10301000012700F00100059050158DE89100CDE9E1
:10302000035669461048FFF7ADFB38028DE8910062
:10303000CDE9035669460D48FFF7A4FBD8F8001008
:1030400041F40001C8F80010D8F8000000F40000B6
:10305000059006B0BDE8F0810058004030380240CD
:1030600000040240005C00400008024000000240F2
:103070000248816802781144816070470C0000208A
:103080000B4810B5016841F400710160016841F41A
:1030900080610160016841F480710160032000F0EB
:1030A00061F80F2000F006F800F024F8002010BDB1
:1030B000003C024070B50D4D04464FF47A712878FB
:1030C000B1FBF0F00A490968B1FBF0F000F0EEFA4C
:1030D00048B9102C07D200222146501E00F022F8D9
:1030E00000206C6070BD012070BD00000C0000204D
:1030F000180000200A4808B5016841F480410160C9
:10310000006800F4804000900548001F016841F00D
:1031100080510160006800F08050009008BD000000
:1031200044380240F0B40E4B1B680C46C3F3022334
:10313000C3F10705042D00D90425191D072901D263
:10314000002300E0DB1E012606FA05F1491E21409E
:1031500099409E40761E16403143F0BC00F02BBDD6
:103160000CED00E0064900F0070208684FF6FF0387
:10317000184040EA0220034A1043086070470000EC
:103180000CED00E00000FA052DE9F0470E460500C1
:1031900065D0DFF81481D8F80000F7B200F007001E
:1031A000B04207D288F80070D8F8000000F007009D
:1031B000B04254D128683D4C810712D5400703D551
:1031C000206840F4E05020602878000703D520688C
:1031D00040F4604020602068A96820F0F0000843B7
:1031E00020602878C0072DD0304968680839012848
:1031F00012D0022813D0032811D0096889070029AA
:103200002DDA216821F0030101432160FFF7B2FBB1
:10321000814641F2883A0EE009688903EFE70968C0
:103220008901ECE7FFF7A6FBA0EB0901514502D9A4
:103230000320BDE8F0872068696800F00C00B0EB5F
:10324000810FEFD1D8F80010404601F00701B142DC
:1032500007D90770006800F00700B04201D00120D4
:10326000E7E72878400705D52068E96820F4E050B2
:10327000084320602878000706D52068296920F4D3
:10328000604040EAC100206000F028F82168084A48
:10329000C1F30311515CC840064908600648006844
:1032A000FFF708FF0020C4E7003C02400838024056
:1032B000EE440008180000201000002004480549D2
:1032C00000680968044AC1F38221515CC840704714
:1032D0001800002008380240FE440008154810B5C8
:1032E000006810F00C02144813D01449042A0FD0BF
:1032F000082A0ED10F4C241F2268236802F03F02D7
:103300005B0207D52068C0F38810A0FB010106E02E
:10331000084610BD2168C1F38811A1FB00010023FC
:10332000FDF700F82168C1F30141491C4900B0FBD9
:10333000F1F010BD083802400024F40040787D010F
:103340002DE9F84F04006ED02078DFF84C93C007C9
:10335000A9F104054AD009F104000168C1F3810113
:10336000012908D00068C0F3810002280AD1D9F8E9
:103370000000400206D52868800337D56068002821
:10338000E1D033E06068B0F5803F10D0B0F5A02FF9
:10339000286810D020F480302860286820F480202D
:1033A00028606068A8B1FFF7E5FA06460DE02868D6
:1033B00040F48030F4E740F480202860F7E700BF55
:1033C000FFF7D8FA801B642873D828688003F7D5E4
:1033D0000CE0FFF7CFFA064605E000BFFFF7CAFA98
:1033E000801B6428F0D828688003F7D42078DFF8A1
:1033F000AC8280074FF0000A3ED5A748001D016847
:1034000011F00C0F08D00068C0F3810002280BD126
:10341000D9F80000400207D42868800716D5E06874
:10342000012800D112E033E1E068B8B10120C8F80A
:103430000000FFF79FFA064605E000BFFFF79AFA83
:10344000801B0228C0D828688007F7D52868216922
:1034500020F0F80040EAC10028600DE0C8F800A0A4
:10346000FFF788FA064604E0FFF784FA801B02287B
:103470001FD828688007F7D42078000722D5864F08
:1034800087486169703771B101210160FFF772FAF5
:10349000064604E0FFF76EFA801B022809D8386858
:1034A0008007F7D50EE0C0F800A0FFF763FA0646E4
:1034B00005E082E0FFF75EFA801B02287DD83868BD
:1034C0008007F7D42078400768D5DFF8CCB1002713
:1034D0000BF13C0BDBF80000C0000BD4DBF8001054
:1034E00041F08051CBF80010DBF80000012700F01C
:1034F000805000906B4E3068C00510D4306840F4A6
:1035000080703060FFF736FA009005E0FFF732FA7E
:103510000099401A022850D83068C005F6D55E4E92
:10352000A0686C3601280FD00528306810D020F034
:1035300001003060306820F004003060A068B8B14D
:10354000FFF718FA00900FE0306840F00100F4E750
:1035500040F004003060F7E7FFF70CFA0099411AD9
:1035600041F28830814266D830688007F4D50EE099
:10357000FFF700FA009007E0FFF7FCF90099411A05
:1035800041F28830814256D830688007F4D42FB198
:10359000DBF8001021F08051CBF80010A069C8B30F
:1035A0003D49091D0968C1F3810102294AD0022859
:1035B000504607D0C8F8600000E03CE0FFF7DAF9B9
:1035C00004463BE04746C8F86000FFF7D3F90646DB
:1035D00005E000BFFFF7CEF9801B02282BD8286832
:1035E0008001F7D4D4E907010843A16A2E4A4908AB
:1035F00002EB0141626A41EA8211084394F82C10FF
:1036000040EA0161C9F8001001203866FFF7B2F9FD
:10361000044606E03EE000BFFFF7ACF9001B0228BD
:1036200009D828688001F7D534E000BFFFF7A2F978
:10363000001B022802D90320BDE8F88F286880010A
:10364000F4D427E00128F7D0D9F80000E26900F4AB
:10365000800191421CD1226A00F03F01914217D1B2
:1036600047F6C071626A0140B1EB821F10D1A26AB5
:103670004FF0FF3300F4403103EB5202B1EB024F45
:1036800006D194F82C1000F07060B0EB016F01D0FF
:103690000120D1E70020CFE7043802400000474274
:1036A000800E4742007000400000FFFF10B5401E32
:1036B000B0F1807F01D3012010BD4FF0E0246061A4
:1036C0000F21601700F077FA0020A0610720206129
:1036D000002010BDFEE701684A69D24352050FD4AD
:1036E0006FF480624A61002140F8301F202242734B
:1036F0008173026942F00402026101730120704784
:10370000002070472DE9F84F0446C06A1E469346D4
:103710000D4621680A6842F480620A60082807D0D2
:10372000012805D010F5803F02D0206B112804D16C
:103730002068016841F4807101604FF001195B4617
:10374000002249462046009600F0C6F84FF4007863
:1037500040B120680068C00501D5C4F8408003204E
:10376000BDE8F88F2069DFF884A0B0F5804F0FD056
:103770000620216800EAD51747F0F00008613346BB
:103780005A460AF10601204600F0DAF858BB03E079
:10379000E8B240F001001CE02168E8B2086133465D
:1037A0005A465146204600F0CBF8E0B920684169FE
:1037B00081690091016841F4807101605B460022DB
:1037C00049462046009600F087F80028C1D147F00E
:1037D000F1002168086133465A465146204600F000
:1037E000AFF80028BCD00120BAE7000002000100B9
:1037F000F8B50446C06A1E460D461746082807D08D
:10380000012805D010F5803F02D0206B122804D18A
:103810002068016841F480710160134600224FF076
:1038200001112046009600F057F840B1206800686A
:10383000C00502D54FF4007020640320F8BD206954
:10384000B0F5804F0ED00620216800EAD51040F078
:10385000F000086133463A460B49204600F070F804
:1038600078B902E005F0FE0000E0E8B221680861E6
:10387000054933463A46891F204600F061F8002882
:10388000DCD00120F8BD00000800010070B516462C
:103890000D4604460DE02046FFF71DFF08B101204C
:1038A00070BD681C05D0FFF765F8801BA84207D8DB
:1038B00035B120684069C0434007ECD4002070BD9A
:1038C000002044F8300F20216173A073216941F07A
:1038D000200121612073E2E72DE9F0471E46904662
:1038E0000D460446C1F30747DDF8209008E0701C40
:1038F00006D0FFF73FF8A0EB0900B0420FD876B131
:103900002068012F18D0806925EA00000004000C0F
:1039100014D000214145EAD00020BDE8F087002006
:1039200044F8300F20216173A073216941F0200118
:10393000216120730120F0E74069E5E70121E9E713
:103940002DE9F0479A4691460E46044600254FF071
:103950002008C1F3074725E020684069C0434005BF
:1039600014D42068016841F40071016021686FF48B
:1039700080604861256384F83D8084F83E50206C67
:1039800040F00400206484F83C501FE0B9F1FF3F90
:1039900008D0FEF7EFFFA0EB0A0149450CD8B9F1BA
:1039A000000F09D02068012F13D0806926EA00009B
:1039B0000004000C0BD0CFE744F8305F84F80D8092
:1039C000A573206940F02000206125730120BDE827
:1039D000F0874069EAE72DE9F041002590460E4660
:1039E0000446202717E04069C043C0060CD454F8B1
:1039F000301B6FF01000486144F810596777A577C5
:103A0000206A2062257717E0FEF7B4FFA0EB0800DC
:103A1000B04208D83EB120684169C9434906E2D4A2
:103A20000020BDE8F08144F8305F6773A57320691A
:103A300040F02000206125730120F2E770B51646A2
:103A40000D4604460DE02046FFF745FE08B1012073
:103A500070BD681C05D0FEF78DFF801BA84207D8FB
:103A600035B120684069C0430006ECD4002070BD29
:103A7000002044F8300F20216173A073216941F0C8
:103A8000200121612073E2E7114808B5016841F087
:103A900080010160016801F080010091016841F03E
:103AA00002010160016801F002010091016841F02A
:103AB00004010160016801F004010091016841F016
:103AC00001010160006800F00100009008BD0000E5
:103AD00030380240FEE7FEE770477047FFF7C8BA8C
:103AE00030B593B030216846FCF703FE14210CA8D2
:103AF000FCF7FFFD1D480025016841F08051016081
:103B0000006800F0805011901948016841F480412C
:103B100001600068022400F48040119001200390AD
:103B200010200490009406940820CDE90750A820A6
:103B3000CDE9090404200B906846FFF701FC08B1A9
:103B400072B6FEE70CA90F2081E831004FF4A050B7
:103B50000F904FF48050109005210CA8FFF714FB34
:103B6000002801D072B6FEE713B030BD40380240E5
:103B7000007000400248016841F470010160704724
:103B800088ED00E0FEE703B401984100009850EA98
:103B9000C12018BF04204A0D18BF40F0010040F2B8
:103BA000FF72B2EB515F08BF40F00200012808BF6E
:103BB000052002B070470907090E002804DB00F158
:103BC000E02080F80014704700F00F0000F1E020C2
:103BD00080F8141D704730380A2801D20120704740
:103BE000002070470021022000F08CB82DE9F0433E
:103BF00081462DED028BADF5217D9FED208B0024BC
:103C000080AEE846351904F18000C0B20122294691
:103C100000F038F804F18100691CC0B2012200F004
:103C200031F86D78305D05F0070140EA012000F0C1
:103C300043FB53EC182B00F053FB41EC100B04EB4F
:103C4000D470411008EBC107280787ED000B05D59C
:103C500051EC100B00F024FBC7E90001A41C802CE0
:103C6000D0DB4FF4007269464846FCF710FD0DF5B5
:103C7000217DBDEC028BBDE8F08300000000000058
:103C80000000D03FF7B582B0094D642416460F46B8
:103C90000094012302AA29780648FFF7E1F800946E
:103CA00033463A4629780348FEF7EAFF05B0F0BDEF
:103CB00000000020280000203F21012000F022B851
:103CC0000146002000F01EB810B500240A2301228E
:103CD00021460A48FEF71EFF60B1641CE4B2FF2CC7
:103CE000F4D30020FFF7ECFFFFF7E6FFBDE810403C
:103CF000FFF778BF02480470F3E7000028000020B7
:103D0000000000201CB58DF804000A200090344803
:103D10008DF805100223017801AA3248FFF7A0F8B8
:103D200001004ED0012918D0032918D0022918D03B
:103D30002DA0FCF781FB2B48FEF722FE002840D087
:103D4000012812D0022812D0042812D0082812D03C
:103D5000102812D0202812D014E029A002E031A0AF
:103D600000E03AA0FCF768FBE5E741A008E046A0C8
:103D700006E04BA004E04FA002E053A000E057A0F3
:103D8000FCF75AFB1748FEF7FDFDA8B1202813D019
:103D9000242813D0212815D0222815D0282815D062
:103DA000292815D02A2815D0602815D0A02815D08C
:103DB000E02806D14FA002E054A000E059A0FCF793
:103DC0003BFB1CBD5DA0FAE762A0F8E767A0F6E741
:103DD0006CA0F4E773A0F2E77AA0F0E77FA0EEE72B
:103DE0000000002028000020556E6B6E6F776E205B
:103DF00073746174757320646174612025640000BC
:103E000048414C5F4932435F4D61737465725F5442
:103E100072616E736D69742048414C5F4552524F18
:103E2000520D0A0048414C5F4932435F4D61737443
:103E300065725F5472616E736D69742048414C5FA6
:103E400054494D454F55540D0A00000048414C5F00
:103E50004932435F4D61737465725F5472616E7372
:103E60006D69742048414C5F425553590D0A00005A
:103E700048414C5F4932435F4552524F525F424581
:103E800052520D0A0000000048414C5F4932435F26
:103E90004552524F525F41524C4F0D0A00000000F4
:103EA00048414C5F4932435F4552524F525F414651
:103EB0000D0A000048414C5F4932435F4552524F62
:103EC000525F4F56520D0A0048414C5F4932435FE2
:103ED0004552524F525F444D410D0A0048414C5FDC
:103EE0004932435F4552524F525F54494D454F55F9
:103EF000540D0A0048414C5F4932435F53544154CA
:103F0000455F4552524F520D0A00000048414C5F38
:103F10004932435F53544154455F52455345540D14
:103F20000A00000048414C5F4932435F53544154FA
:103F3000455F425553590D0A0000000048414C5F4F
:103F40004932435F53544154455F425553595F547E
:103F5000580D0A0048414C5F4932435F5354415465
:103F6000455F425553595F52580D0A0048414C5F16
:103F70004932435F53544154455F4C495354454E75
:103F80000D0A000048414C5F4932435F535441548D
:103F9000455F425553595F54585F4C495354454E01
:103FA0000D0A000048414C5F4932435F535441546D
:103FB000455F425553595F52585F4C495354454EE3
:103FC0000D0A000048414C5F4932435F535441544D
:103FD000455F41424F52540D0A00000048414C5F7A
:103FE0004932435F53544154455F54494D454F5501
:103FF000540D0A008A68002A01DCFDF7BDBB521E81
:104000008A604A68C0B2531C4B601070704710B58C
:10401000012000F099F8BDE810400320FEF7A0BB96
:1040200070B505463220FEF79BFB2A4C2846052238
:1040300065604FF4FA752B464E21FEF76BFD0028A4
:1040400045D02B4605227E216068FEF763FD08B14E
:10405000002070BD7E2020702D20FEF781FB3020D7
:1040600000F072F80520FEF77BFB302000F06CF8C2
:104070000120FEF775FB302000F066F80820FEF7FF
:104080006FFB202000F060F80820FEF769FB282075
:1040900000F05AF80120FEF763FB082000F054F806
:1040A0000120FEF75DFB012000F04EF80320FEF733
:1040B00057FB062000F048F80120FEF751FB0C20CA
:1040C00000F042F80320FEF74BFB012070BD4E20AC
:1040D000C1E70000040000200FB410B588B00BAA9F
:1040E00001A80A99FCF796F900241FE001A804230F
:1040F000015D080101F0F00141F00D028DF818207A
:1041000041F009018DF8191040F00D018DF81A10D9
:1041100040F009008DF81B00C8200090094806AA4D
:1041200001784068FEF79CFE641CE4B201A8FCF72D
:104130008FFAA04201D9102CD8D308B010BC5DF87A
:1041400014FB0000040000201CB5010100F0F00089
:1041500040F00C028DF8042040F008008DF80500B6
:1041600041F00C008DF8060041F008008DF80700C2
:10417000C82000900348042301AA01784068FEF794
:104180006FFE1CBD04000020ADF5007DFEF778FF3A
:10419000FFF7A6FCFFF778FC25482449254D0024AD
:1041A0000160C0E901540E14C0E903464461846112
:1041B000C4610462FEF7EAFB08B172B6FEE71C4870
:1041C0001D4954300160C0E90154C0E9034644610F
:1041D0008461C4610462FEF7D9FB08B172B6FEE7E0
:1041E00013485430FFF71CFF40B1FFF710FF13A036
:1041F000FFF772FF4FF47A70FEF7B2FAFFF764FD33
:104200000B4C4FF40075A8346846FFF7EFFC0848E4
:104210002A466946A830FCF73AFA94ED000B08A04C
:1042200053EC102BFFF758FFEEE70000005800405A
:1042300028000020A0860100005C00406F6B650034
:10424000252E32660000000010B500290AD008783B
:10425000002807D005487844FDF7DCFD002801D090
:10426000002010BD0248784410BD0000DA030000B1
:10427000D203000010B500290AD00878002807D022
:1042800005487844FDF7C6FD002801D0002010BD88
:104290000248784410BD0000CA030000C2030000B9
:1042A00081F00041704780F00040704721F00041EC
:1042B000704720F000407047B0FA80F310FA03F125
:1042C0000AD0C3F11D0303F580634FEA41504FEA62
:1042D000035202EBD12170474FF0000070470000FD
:1042E000DFF848C170B51CEA111E1EBF1CEA131589
:1042F0009EEA0C0F95EA0C0F00F06F8081EA030430
:1043000023EA4C134EEAD47E21EA4C1141F4801189
:1043100043F48013AE44A1FB024CA0FB0365AEF155
:104320007F7E361955EB0C05A1FB034C4CF10003C5
:10433000A0FB021C16EB0C06654153F10003094279
:1043400018BF46F0010613F4007F0BD14FEA03318A
:104350004FEA0530340341EA155140EA16506FF038
:1043600003020AE04FEAC3214FEAC520F40241EA02
:10437000555140EA56506FF0020202EB2E4201EB1B
:10438000025585EACE710AD05FEA440C18BF24F0CA
:10439000004450F1000041F1000120EAD47040F2E5
:1043A000FE7C624500D270BDA84214BF4FF080442D
:1043B0004FF04044002E08BF0024BEF1806FA8BF1C
:1043C000A1F1C041BDE8704080F282804FF0000052
:1043D00001F1C04101F0004170479EEA0C0F0CEA68
:1043E000131518BF95EA0C0F06D04FF0000081EAB4
:1043F000030E0EF0004170BD00F01CF88900013E74
:1044000000F007B800F009B84FEA430C5FEA5C5CC3
:1044100008D081EA030100F05BB84FEA410C5FEA83
:104420005C5CF6D14FF00000014970470000FF07C7
:104430000000F87F0EF1020E2EF0030E5EF8046B02
:10444000364205D4012A43EB030515F5001F12D8A7
:10445000012841EB010C1CF5001F0CD80ED14FEACE
:10446000D17C15F5001F0CEB4C0C0CF1020C08BFB5
:104470004CEBD37C04E04FF0080C01E04FEAD37C16
:104480000CEB4C0526FA05F606F00706B6F1040C0F
:1044900006D20EEB860CBDE870404CF0010C604774
:1044A000DFE80CF0090B02024FF000414FF0000072
:1044B000A1F5002170BD19461046012851EB0104F9
:1044C00018BFD4F5001484BF002001F0004170BD76
:1044D0000808A0F500114FEA310170474FF0407015
:1044E000E1EE100A7047FCF769BCFCF79DBD0000C7
:1044F0000000000000000102030406070809000094
:104500000000010203040400000800000000000095
:104510000002000100001000000000000000000088
:1045200030313233343536373839414243444546E9
:1045300040305800303132333435363738396162E3
:104540006364656640307800303132333435363755
:1045500038396162636465667870003031323334B3
:1045600035363738394142434445465850003A744D
:1045700074003A7474003A74740000000240000041
:10458000000000A00000000005400000000000C87E
:10459000000000000C4000000000409C00000000F3
:1045A000194000000020BCBE0000000034400000A4
:1045B000BFC91B8E00000004B5400000504BCFD097
:1045C0006607E2CF010000006C4100003E8251AA64
:1045D000DFEEA73401000000D9420000DCB5A0E204
:1045E0003A301F97FFFFFFFFB4450000FD25A0C82C
:1045F000E9A3C14FFFFFFFFFFF3F00000000008065
:1046000000000000FF3F00000000008000000000EC
:104610005C4700080000002028000000C4010008DA
:104620008447000828000020080A0000E001000874
:104630001C00000043000000F8FFFFFF0C0000001A
:104640000E0000000F0000002E000000100100000E
:1046500043000000F8FFFFFF004040404040404062
:104660004040414141414140404040404040404045
:1046700040404040404040404005020202020202E9
:104680000202020202020202022020202020202038
:10469000202020020202020202029090909090904C
:1046A000101010101010101010101010101010100A
:1046B000101010100202020202028888888888887E
:1046C000080808080808080808080808080808086A
:1046D0000808080802020202400000000000000072
:1046E00000000000000000000000000000000000CA
:1046F00000000000000000000000000000000000BA
:1047000000000000000000000000000000000000A9
:104710000000000000000000000000000000000099
:104720000000000000000000000000000000000089
:104730000000000000000000000000000000000079
:104740000000000000000000000000000000000069
:104750000000000000000000000000000000000059
:104760000000000000000000010000001000000038
:10477000000000000024F400000000000000000021
:044780000000000035
:040000050800018965
:00000001FF
