:020000040800F2
:10000000280A0020410200084B230008951F000821
:10001000492300087D100008F923000800000000B3
:100020000000000000000000000000004F23000856
:100030007F100008000000004D2300085123000835
:100040005B0200085B0200085B0200085B0200081C
:100050005B0200085B0200085B0200085B0200080C
:100060005B0200085B0200085B0200085B020008FC
:100070005B0200085B0200085B0200085B020008EC
:100080005B0200085B0200085B0200085B020008DC
:100090005B0200085B0200085B0200085B020008CC
:1000A0005B0200085B0200085B0200085B020008BC
:1000B0005B0200085B0200085B0200085B020008AC
:1000C0005B0200085B0200085B0200085B0200089C
:1000D0005B0200085B0200085B0200085B0200088C
:1000E0005B0200085B0200085B0200085B0200087C
:1000F0005B0200085B0200085B0200085B0200086C
:100100005B0200085B0200085B0200085B0200085B
:100110005B0200085B0200085B0200085B0200084B
:100120005B0200085B0200085B0200085B0200083B
:100130005B0200085B0200085B0200085B0200082B
:100140005B0200085B0200085B0200085B0200081B
:100150005B0200085B0200085B0200085B0200080B
:100160005B0200085B0200085B0200085B020008FB
:100170005B0200085B0200085B0200080000000050
:100180005B0200085B02000800F002F800F049F88A
:100190000AA090E8000C82448344AAF10107DA45E2
:1001A00001D100F03EF8AFF2090EBAE80F0013F0EB
:1001B000010F18BFFB1A43F00103184798290000EC
:1001C000B8290000103A24BF78C878C1FAD852077D
:1001D00024BF30C830C144BF04680C6070470000C1
:1001E0000023002400250026103A28BF78C1FBD840
:1001F000520728BF30C148BF0B607047642900F028
:10020000F780002070471FB502F08CFC9DE80300CA
:1002100000F006FD00F00CFA1FBD10B500F071FAF9
:1002200010BD00F0D4FA1146FFF7EDFF02F00CFB11
:1002300000F0C4FC03B4FFF7F0FF03BC00F082FE43
:100240000948804709480047FEE7FEE7FEE7FEE76A
:10025000FEE7FEE7FEE7FEE7FEE7FEE704480549A6
:10026000054A064B70470000E92300088901000891
:1002700028040020280A0020280600202806002044
:1002800053EA020C00F069802DE9F04B4FF00006B4
:10029000002B1FBFB3FA83F503FA05F424FA05F621
:1002A0005E4012BF1643B2FA82F502FA05F4C5F1B8
:1002B00020051EBF22FA05FC44EA0C04203556EA4C
:1002C000044C4FEA144418BF641C4FF000084FF070
:1002D0000009904271EB030C39D3002919BFB1FA20
:1002E00081F701FA07F6B0FA80F700FA07F6C7F1CE
:1002F00020071EBF20FA07FC46EA0C062037B6FB93
:10030000F4FCA7EB0507103F07F01F0BCBF120060D
:100310000CFA0BFB2CFA06F644BFB3460026202F3E
:10032000A4BF5E464FF0000B5BEA060C08BF4FF01F
:10033000010B19EB0B09ABFB027C48EB0608C01B59
:1003400006FB02CC0BFB03CC71EB0C01C1E70B46A7
:10035000024641464846BDE8F08B13B54FF0000019
:100360004FF00001AFF30080BDE81C407047000073
:100370000FB4044910B503AA029800F02BF910BC81
:100380005DF814FB1C0300202DE9F0410E460446E5
:10039000002020622046E168884730B3252805D038
:1003A000D4E901219047206A401CF2E7E168204629
:1003B00000278847050018D0A5F14100192802D868
:1003C00020354FF400673246294620462760FFF764
:1003D00015FF40B1012804D0F61D26F007060836A7
:1003E000D8E7361DD6E72846DAE7206ABDE8F0816F
:1003F0002DE9F0410646002410687529314616A5FE
:1004000010D0AFF30080002802DA404213A507E0C5
:1004100031688A0701D512A502E0490704D511A564
:10042000012401E0AFF3008000210A2206F1240735
:1004300009E0B0FBF2FCB0FBF2F302FB1C00303031
:1004400078541846491C0028F3D123462A463046E2
:10045000BDE8F04100F064B8000000002D0000008D
:100460002B0000002000000010B5203AC0F00B80E7
:10047000B1E81850203AA0E81850B1E81850A0E8A8
:100480001850BFF4F5AF5FEA027C24BFB1E8185002
:10049000A0E8185044BF18C918C0BDE810405FEA72
:1004A000827C24BF51F8043B40F8043B08BF7047EE
:1004B000D20728BF31F8023B48BF11F8012B28BFF3
:1004C00020F8023B48BF00F8012B70474FF00002B4
:1004D00000B5134694469646203922BFA0E80C503A
:1004E000A0E80C50B1F12001BFF4F7AF090728BF15
:1004F000A0E80C5048BF0CC05DF804EB890028BF91
:1005000040F8042B08BF704748BF20F8022B11F0B9
:10051000804F18BF00F8012B704770477047704735
:100520002DE9F0470D4699469246044600F124080D
:100530000168880604D5E06921F01001216000E01F
:100540000120A84201DD471B00E00027A1697A19BC
:1005500002EB0900081AA0612078C00602D42046E8
:10056000AFF30080002608E0D4E901211AF8060064
:100570009047206A401C761C20624E45F4DB2078B0
:10058000C0060AD52046AFF3008006E0D4E9012179
:1005900030209047206A401C2062381EA7F10107D6
:1005A000F4DC07E0D4E9012118F805009047206A3F
:1005B000401C2062281EA5F10105F3DC2046AFF3A4
:1005C00000802078000602D50220BDE8F0870120D7
:1005D000FBE70000074B70B50D467B4400F011F8B7
:1005E0000446284600F020F810B14FF0FF3070BDEF
:1005F000204670BD4F22000001694A1C0261087844
:10060000704700B58FB0CDE9013100210591054952
:100610007944CDE9031011466846FFF7B5FE0FB0E7
:1006200000BD0000E5FFFFFF007B00F08000704789
:1006300010B542485421FFF749FF41485421FFF7C4
:1006400045FF40485421FFF741FF3F493B483C4AA2
:100650003F4B08603D490A603A491960531C0365E5
:10066000481C1065012008653B48344A39A178448C
:1006700000F008FA20B9384878440A3800F0A7FAA0
:1006800037482F4A35A1784400F0FCF920B93448A6
:1006900078440A3800F09BFA32482A4A2FA178445D
:1006A00000F0F0F920B92F4878440A3800F08FFAAA
:1006B00040232248DC000021224600F0BFF920B18F
:1006C00025487844543800F082FA1D4822464023D9
:1006D000002100F0B3F920B121487844543800F0EB
:1006E00076FA184822461023002100F0A7F90028C6
:1006F00006D01C487844BDE81040563800F067BA70
:1007000010BD104870B5006D20F001040B4800F0DA
:100710002FFA0B4800F02CFA0A4800F029FA09E0F9
:10072000206D20F00105204600F022FA204600F05E
:1007300073F82C46002CF3D170BD0000C8020020D5
:100740001C0300207003002014000020180000206B
:100750001C00002072000000D4240000770000007C
:10076000C0240000AC2400000EB5CDE9000100F06B
:10077000C9FB029069460120ABBE0EBD08B56946B3
:1007800000900220ABBE08BD1FB58DE8070069468A
:100790000520ABBE04B010BD1FB58DE80F00694643
:1007A0000620ABBEF6E708B5694600900920ABBE4F
:1007B00008BD1CB5CDE9000169460A20ABBE1CBDD1
:1007C000704708B5694600900C20ABBE08BD754661
:1007D00000F004FAAE4605006946534620F00700D3
:1007E000854618B020B5FFF739FDBDE820404FF031
:1007F00000064FF000074FF000084FF0000B21F00B
:100800000701AC46ACE8C009ACE8C009ACE8C009D7
:10081000ACE8C0098D46704770B50446051F00F06E
:10082000E3F90068002C14BF446870BD002C18BFA9
:10083000AC423CBF20466468F8D301680A18AA425B
:1008400018BF456003D12A68054611440160286835
:100850004119A1421CBF6C6070BD6168696021686C
:100860000844286070BD2DE9F04705460C46C8686D
:1008700020F4201040F48000C860800602D50846AD
:1008800000F0FFFAE06841F282014FF0FF390140C9
:10089000022903D0204600F09DFAB5E000F4204183
:1008A000B1F5004F0FD1C00306D56168E06A8842F8
:1008B00000D80846606006E02069E0626060606918
:1008C000FFF77FFFA061A0680022EEB200280DDADA
:1008D000E1688B050AD4C043A06041F490302260E7
:1008E000E0606068411C61600670A5E0E0689046C9
:1008F000226040F40050E060206968BB6069FFF747
:1009000052FF012704F12405A0B1A08910F4407F13
:1009100008D0E06900F0B3F9206118B1E06840F454
:10092000006016E0E7612561E06820F4407040F463
:1009300080600EE0E06900F0A2F900282061F1D0AB
:10094000E06840F4006010F4407FE06002D140F4C1
:100950008070E06020696060E06825696FF0010ADE
:10096000C1051FD56168E06A884200D80846411B6E
:1009700004D02246284600F037FAF0BBE0680102B6
:1009800003D5E562C4E9015854E0691CE162616085
:10099000E16940F48030491EC4E9021030462E70EF
:1009A000BDE8F087010202D500F480320AE06068F9
:1009B000411C61600670E0680A2E40F48030E060FF
:1009C00006D00022E16A6068814203D90B4602E04A
:1009D0000122F7E70346A7895B1B7F0503D4E7697C
:1009E0009F4200DDE2B1814200D80146E5620F1A64
:1009F000C4E90158002B09DD00E005E02246194654
:100A0000284600F0F1F908B14846C9E747B1A069A6
:100A1000E5626560C01BA061E06840F01000E06026
:100A2000E068000208D56168A069E562491B0844D6
:100A30006560A0615046B3E73046B1E770B5C46861
:100A4000A50713D0650211D4B2F5807F09D0B2F5A5
:100A5000007F06D0B2F5806F08D1012300F1240198
:100A600006E05D1E6FF07F46B54201D3012070BDE8
:100A70000161C361416024F470611143C1600020D1
:100A800070BD00002DE9F0410C46074616461046A1
:100A900000F06EF82078611C61280AD0722802D01C
:100AA00077283CD102E00125002405E0022504243A
:100AB00002E0082448F2020511F8010B2B2806D0A9
:100AC000622809D011F8010C74280AD00BE045F017
:100AD000030544F00204EFE745F0040544F0010487
:100AE000EAE744F0100438462146FFF73DFE411C7A
:100AF00015D00021316171604FF40071F560F16132
:100B00007061200704D530460222002100F0E6F88B
:100B1000306D40F0010030653046BDE8F0810020C6
:100B2000FBE72DE9F0410D460646104C206DC1074C
:100B300004D0410804D020F00104F7E722460EE07B
:100B4000542000F09CF807000ED0206D47F0010102
:100B50000843542120653846FFF7B8FC3A46294639
:100B60003046BDE8F0418DE70020D6E7C8020020FE
:100B70002DE9F04704464FF000094FF0FF37C568F4
:100B8000D4E90486A80707D0204600F057F930467C
:100B9000FFF7F4FD002802DA3846BDE8F0872805A3
:100BA00002D54046FFF738FE4C212046FFF78EFC69
:100BB000206D20F0010020654846EEE710B50446A0
:100BC000AFF300802046BDE81040FFF733BB10B5FF
:100BD00000F07EF9BDE8104000F074B9004870479D
:100BE000C40300207047000000487047CC03002079
:100BF000704770477047704738B504460A46002072
:100C00006946AFF30080002808BF38BD024600994E
:100C1000204600F0A4F9012038BD012000F0F3B90E
:100C2000F8B5AFF30080054600200C46102000BF49
:100C30000646A819A0420DD9324669460020AFF3F6
:100C40000080070008BF00F0DEF90098A04218BF3E
:100C50000546C419FFF7C8FF05600746F01D20F0E0
:100C600007004619284600F073F9B44208BFF8BDE2
:100C7000A21B31463868BDE8F84000F070B970B585
:100C80000646FFF7B1FF056806F10B0020F00704E8
:100C9000B4429CBF002070BD2B466A68BAB1106890
:100CA000A04210D304F1080188423CBF506858604C
:100CB00007D35168101941601168091B0160586021
:100CC0001460101D70BD13465268002AE7D12146FA
:100CD0002846FFF791FF0028DED170BD2DE9F041D5
:100CE000044616460D464769007B80072ED03846DD
:100CF000FFF759FD50BB3EB3012E02D0022E25D185
:100D000004E0204600F045F905441DE03846FFF7B1
:100D100058FDE168002841F01001E16005DA204645
:100D200000F058F80120BDE8F081C9030BD56268D6
:100D3000E16A914200D81146A26911442269891AD8
:100D4000814200DD08460544002D01DA0220EAE771
:100D5000E16A6068E268814206D29103E06203D5ED
:100D600022F4003141F01002A6690027AE4213DCE4
:100D7000E16A814201D90B4600E0034603EB060C11
:100D80002369ACEB030CAC4506DD814201D98C46EE
:100D900000E084469C4505D1A760276042F0200012
:100DA000A5620DE0AD1BE669AE1B8142A66000D9CD
:100DB0000846C01A281A20605819606022F02000E6
:100DC00003490840E060002084F84870ABE7000069
:100DD000BFCFD7FFC16821F4001141F08001C1608D
:100DE00000218160016070472DE9F047814614467B
:100DF0000E464FF0FF383248D5685769054209D092
:100E00003846A169FFF7D5FC002811DB2C48C04308
:100E10000540E5602B46324649463846FFF7B4FCAC
:100E2000A16920F00042B21A11440028A16103D048
:100E30002046FFF7CFFF4046BDE8F08770B5044677
:100E40000569C06A6168884200D80846E16821F4F3
:100E50002011E160C90312D5A84208D02246411BE7
:100E60002846FFF7C1FF10B14FF0FF3070BD0020E2
:100E7000E562C4E90150E06820F48030E0600020C1
:100E800070BD10B50446C06820F02000E060A16A83
:100E9000A06988420DD02046FFF7D0FFE06820F41B
:100EA000405040F01000E060A06AA0612069E0625C
:100EB000606044F24001E0688843E06010BD0000DB
:100EC00010000200002801D000F03CB8704700007C
:100ED00010B5014602A000F07DF8012010BD000011
:100EE00053494752545245443A20526564697265E9
:100EF00063743A2063616E2774206F70656E3A20C8
:100F00000000000010B5431C02E010F8011B71B195
:100F10008107FAD14FF0013202C88C1A8C4314EACF
:100F2000C211F9D0C01A0A0603D0C01E10BDC01AE3
:100F300010BD0A0401D0801E10BD0902FCD0401E65
:100F400010BD000001491820ABBEFEE726000200DC
:100F500000210160C0E9011070471020704703466E
:100F600040688C46002818BF88423CBF0346406852
:100F7000F8D318681844884207D00CF1030020F019
:100F80000700001D411A521A0146081D0A60FFF7AA
:100F900043BC10B50146C268900703D0900607D540
:100FA000886A0AE000F03EF801210160881E10BD49
:100FB0008B69486818440B69C01A91F848301BB116
:100FC00091F84910401A10BD1103FCD50028FADD34
:100FD000401E10BD70B505460C460A2000E06D1C91
:100FE00000F018F835B128780028F8D102E0641C28
:100FF00000F010F814B120780028F8D1BDE8704056
:101000000A2000F007B810B500F010F8BDE8104055
:10101000FFF758BF08B569468DF800000320ABBE46
:1010200008BD000000487047C403002010B5012827
:1010300005D0002103A0FFF7CDFF012010BD09A1BD
:10104000F8E7000053494752544D454D3A204F753B
:1010500074206F662068656170206D656D6F7279B0
:10106000000000003A2048656170206D656D6F7268
:101070007920636F7272757074656400FEE7704763
:101080002DE9F84FDFF8BCA10022012503264FF01F
:101090000F090AF1040BAAF1040E00BF0B6805FA50
:1010A00002F42340A34270D10F7907F00307012F08
:1010B00001D0022F16D187684FEA420806FA08FCD1
:1010C00027EA0C07D1F80CC00CFA08FC4CEA070C14
:1010D000C0F808C04768A7430C79C4F300149440D3
:1010E0003C4344600C79E443A4070AD0C4684FEA47
:1010F000420C06FA0CF7BC438F6807FA0CF727433B
:10110000C7600C7904F00304022C12D1D40800EB60
:10111000840CDCF820405707FF0E09FA07F824EA90
:101120000804D1F8108008FA07F848EA0408CCF857
:10113000208004684FEA420C06FA0CF7BC430F7992
:1011400007F0030707FA0CF7274307604C6814F40D
:10115000403F70D03C4C276847F4804727602468A4
:1011600022F0030704F480440094384C07EB040C8D
:10117000DCF8084897074FEA177809FA08F7BC43E4
:10118000334FB84202D1002724E054E0314FB84237
:1011900001D101271EE0304FB84201D1022719E0EA
:1011A0002E4FB84201D1032714E02D4FB84201D190
:1011B00004270FE02B4FB84201D105270AE02A4F40
:1011C000B84201D1062705E0284FB84201D10727D0
:1011D00000E0082707FA08F72743CCF80878DAF880
:1011E00000405746D1F804C09C435FEACC2C00D5A0
:1011F0001C433C60DBF800405F46D1F804C09C43D0
:101200005FEA8C2C00D51C433C60DEF8004077463A
:10121000D1F804C09C435FEA8C3C00D51C433C6081
:10122000084F083F3C68D1F804C09C435FEACC3CBF
:1012300000D51C433C60521C102AFFF42FAFBDE8C0
:10124000F88F0000083C0140443802400030014063
:10125000000002400004024000080240000C02406E
:10126000001002400014024000180240001C02401E
:10127000014880687047000004000020006C70473F
:1012800090F83D007047000070B5040025D094F838
:101290003D00002520B984F83C50204600F0F4FAC7
:1012A000242084F83D002068016821F001010160DC
:1012B0002068016841F4004101602068016821F460
:1012C0000041016000F05AFC4D4A6168914201D82A
:1012D0004C4900E04C49884201D2012070BD4B4985
:1012E0002368B0FBF1F15E6826F03F060E435E60B6
:1012F0006368934206D94FF4967359434FF47A7357
:10130000B1FBF3F12368491C1E6A26F03F06314306
:1013100019626168914210D84900401EB0FBF1F299
:10132000521CC2F30B02042A01D2042022E0B0FBBB
:10133000F1F0401CC0F30B001CE0A268F2B301EB1B
:10134000C10303EB0116431EB3FBF6F35B1C43F42E
:1013500080431B0549D092B301EBC10202EB01119E
:10136000401EB0FBF1F0401CC0F30B0040F4804085
:1013700040F400402168CA694CF6FF739A43104359
:10138000C861D4E9071001432068026822F0C00256
:1013900011430160D4E9030101432068826848F2E7
:1013A000FF339A4311438160D4E905010843216862
:1013B000CA6822F0FF021043C86001E00EE016E0A8
:1013C0002068016841F0010101602564202084F853
:1013D0003D00256384F83E50002070BD01EB4106BE
:1013E000431EB3FBF6F35B1CB3E70120C2E701EB3E
:1013F0004101401EB0FBF1F0401CC0F30B00B7E709
:10140000A086010080841E0000093D0040420F00BC
:101410002DE9FF4F81B089460446FFF729FF0546B5
:1014200094F83D004FF0000820287DD119230122B7
:1014300050492046009500F0AFFE002874D194F882
:101440003C00012870D0012084F83C00206801682D
:10145000C90703D1016841F00101016020680168FA
:1014600021F400610160242084F83D0000262664F8
:101470004148E0624FF0011B20272068016841F4D9
:10148000807101600095002259462046049B00F0BF
:1014900083FE50B120680068C00502D54FF400708B
:1014A0002064032005B0BDE8F08F216809F0FE003C
:1014B0000861FFF7DDFE2168054648694969C0F308
:1014C0004000C1F380214FF0A00A0FE0FFF7D0FEEB
:1014D000411B0498814200D808B984F83DA02168D6
:1014E00048694969C0F34000C1F3802194F83D2068
:1014F000A02A02D008B90029E8D084F83D702068FD
:101500004169C943890716D4016841F4007101603B
:1015100020684169806919230122164920460095F7
:1015200000F03AFEB8B900E021E084F83D7084F89C
:101530003C600020B6E7016841F400710160216859
:101540006FF480604861192301220A492046009502
:1015500000F022FE08B10120A4E7039808F1010879
:1015600080458AD384F83D7084F83C60F3E702201C
:1015700098E70000020010000000FFFF2DE9F84F7F
:101580001F4690468A460446DDF82890FFF770FE15
:10159000054694F83D00202875D1192301226C4995
:1015A0002046009500F0F8FD0028F5D194F83C00A5
:1015B000012868D0012084F83C0020680168C90730
:1015C00003D1016841F0010101602068016821F444
:1015D00000610160222084F83D00102084F83E0064
:1015E00000262664C4F824806785608D20855948CC
:1015F000E0622B464A465146204600F0E3FC0028B4
:1016000078D1208D544F68B1012814D00228206869
:10161000016816D041F480610160206841698069E9
:10162000009087E02068416981690091016841F478
:10163000007101607EE02068016821F48061016032
:10164000F0E721F4806101602068016841F40061E5
:10165000E2E7032848D801280AD0022814D04B46D4
:10166000002239462046009500F096FDD8BB27E0C1
:101670002A464946204600F00EFEA0BB20680069BD
:10168000616A08704DE061E04B4600223946204611
:10169000009500F081FD30BB2068016841F40071C5
:1016A000016020680069616A0870606A401C6062BD
:1016B000218D491E2185618D491E618521682EE09D
:1016C0002068016821F48061016020680069616A16
:1016D0000870606A401C6062208D401E2085608D0D
:1016E000401E6085D0E705E02A464946204600F0C6
:1016F000D2FD10B10120BDE8F88F20680069616A51
:101700000870606A401C6062218D491E2185618DD0
:10171000491E618521684A69D24352070AD4096982
:101720000170606A401C6062208D401E2085608DC3
:10173000401E6085208D00288BD1202084F83D003C
:1017400084F83E6084F83C600020D4E70220D2E7B1
:10175000020010000000FFFF040001002DE9F84F17
:101760001F4690468A460446DDF82890FFF780FD24
:10177000054694F83D0020287FD1192301224049D5
:101780002046009500F008FD002876D194F83C0032
:10179000012872D0012084F83C0020680168C90744
:1017A00003D1016841F0010101602068016821F462
:1017B00000610160212084F83D00102084F83E0083
:1017C00000262664C4F824806785608D20852D4816
:1017D000E0622B464A465146204600F069FC90B92B
:1017E000206841698069009036E02A4649462046D3
:1017F00000F084FD50B1206C042804D120680168F9
:1018000041F4007101600120BDE8F88F606A216831
:1018100000780861606A401C6062618D491E6185C4
:10182000218D491E89B2218522685369DB435B07FC
:101830000BD451B100781061606A401C6062608D09
:10184000401E6085208D401E20852A464946204640
:1018500000F07CFC0028CED1208D0028C5D154F8A2
:101860003D0B016841F400710160202004F81E095D
:10187000E67766770020C7E7FFE70220C4E70000AD
:10188000020010000000FFFFF0B587B004461421ED
:101890006846FEF71BFE2768224CDFF884C000264E
:1018A00020491222032304251F481034674517D10D
:1018B0000F6847F002070F60096801F00201059107
:1018C000C0218DE84600CDE903356946FFF7D8FB16
:1018D000206840F400102060206800F400101CE034
:1018E000124EB7421AD10E6846F002060E60096821
:1018F00002AE01F0020105914FF44061CDE9001202
:10190000012186E82A006946FFF7BAFB206840F407
:1019100080002060206800F48000059007B0F0BDD2
:10192000005400403038024000040240005800409B
:1019300002488168027811448160704704000020E9
:101940000B4810B5016841F400710160016841F471
:1019500080610160016841F480710160032000F042
:1019600061F80F2000F006F800F024F8002010BD08
:10197000003C024070B50D4D04464FF47A71287852
:10198000B1FBF0F00A490968B1FBF0F000F0EEFAA3
:1019900048B9102C07D200222146501E00F022F830
:1019A00000206C6070BD012070BD000004000020AC
:1019B000100000200A4808B5016841F48041016028
:1019C000006800F4804000900548001F016841F065
:1019D00080510160006800F08050009008BD000058
:1019E00044380240F0B40E4B1B680C46C3F302238C
:1019F000C3F10705042D00D90425191D072901D2BB
:101A0000002300E0DB1E012606FA05F1491E2140F5
:101A100099409E40761E16403143F0BC00F0EDBC6C
:101A20000CED00E0064900F0070208684FF6FF03DE
:101A3000184040EA0220034A104308607047000043
:101A40000CED00E00000FA052DE9F0470E46050018
:101A500065D0DFF81481D8F80000F7B200F0070075
:101A6000B04207D288F80070D8F8000000F00700F4
:101A7000B04254D128683D4C810712D5400703D5A8
:101A8000206840F4E05020602878000703D52068E3
:101A900040F4604020602068A96820F0F00008430E
:101AA00020602878C0072DD030496868083901289F
:101AB00012D0022813D0032811D009688907002901
:101AC0002DDA216821F0030101432160FFF7D0FBEB
:101AD000814641F2883A0EE009688903EFE7096818
:101AE0008901ECE7FFF7C4FBA0EB0901514502D9DE
:101AF0000320BDE8F0872068696800F00C00B0EBB7
:101B0000810FEFD1D8F80010404601F00701B14233
:101B100007D90770006800F00700B04201D001202B
:101B2000E7E72878400705D52068E96820F4E05009
:101B3000084320602878000706D52068296920F42A
:101B4000604040EAC100206000F028F82168084A9F
:101B5000C1F30311515CC84006490860064800689B
:101B6000FFF708FF0020C4E7003C024008380240AD
:101B70002E2B000810000020080000200448054912
:101B800000680968044AC1F38221515CC84070476B
:101B900010000020083802403E2B0008154810B500
:101BA000006810F00C02144813D01449042A0FD016
:101BB000082A0ED10F4C241F2268236802F03F022E
:101BC0005B0207D52068C0F38810A0FB010106E086
:101BD000084610BD2168C1F38811A1FB0001002354
:101BE000FEF74EFB2168C1F30141491C4900B0FBDF
:101BF000F1F010BD083802400024F40040787D0167
:101C00002DE9F84F04006ED02078DFF84C93C00720
:101C1000A9F104054AD009F104000168C1F381016A
:101C2000012908D00068C0F3810002280AD1D9F840
:101C30000000400206D52868800337D56068002878
:101C4000E1D033E06068B0F5803F10D0B0F5A02F50
:101C5000286810D020F480302860286820F4802084
:101C600028606068A8B1FFF703FB06460DE028680E
:101C700040F48030F4E740F480202860F7E700BFAC
:101C8000FFF7F6FA801B642873D828688003F7D51D
:101C90000CE0FFF7EDFA064605E000BFFFF7E8FAB3
:101CA000801B6428F0D828688003F7D42078DFF8F8
:101CB000AC8280074FF0000A3ED5A748001D01689E
:101CC00011F00C0F08D00068C0F3810002280BD17E
:101CD000D9F80000400207D42868800716D5E068CC
:101CE000012800D112E033E1E068B8B10120C8F862
:101CF0000000FFF7BDFA064605E000BFFFF7B8FA9F
:101D0000801B0228C0D828688007F7D52868216979
:101D100020F0F80040EAC10028600DE0C8F800A0FB
:101D2000FFF7A6FA064604E0FFF7A2FA801B022896
:101D30001FD828688007F7D42078000722D5864F5F
:101D400087486169703771B101210160FFF790FA2E
:101D5000064604E0FFF78CFA801B022809D8386891
:101D60008007F7D50EE0C0F800A0FFF781FA06461D
:101D700005E082E0FFF77CFA801B02287DD83868F6
:101D80008007F7D42078400768D5DFF8CCB100276A
:101D90000BF13C0BDBF80000C0000BD4DBF80010AB
:101DA00041F08051CBF80010DBF80000012700F073
:101DB000805000906B4E3068C00510D4306840F4FD
:101DC00080703060FFF754FA009005E0FFF750FA9A
:101DD0000099401A022850D83068C005F6D55E4EEA
:101DE000A0686C3601280FD00528306810D020F08C
:101DF00001003060306820F004003060A068B8B1A5
:101E0000FFF736FA00900FE0306840F00100F4E789
:101E100040F004003060F7E7FFF72AFA0099411A12
:101E200041F28830814266D830688007F4D50EE0F0
:101E3000FFF71EFA009007E0FFF71AFA0099411A1F
:101E400041F28830814256D830688007F4D42FB1EF
:101E5000DBF8001021F08051CBF80010A069C8B366
:101E60003D49091D0968C1F3810102294AD00228B0
:101E7000504607D0C8F8600000E03CE0FFF7F8F9F2
:101E800004463BE04746C8F86000FFF7F1F9064614
:101E900005E000BFFFF7ECF9801B02282BD828686B
:101EA0008001F7D4D4E907010843A16A2E4A490802
:101EB00002EB0141626A41EA8211084394F82C1056
:101EC00040EA0161C9F8001001203866FFF7D0F937
:101ED000044606E03EE000BFFFF7CAF9001B0228F7
:101EE00009D828688001F7D534E000BFFFF7C0F9B2
:101EF000001B022802D90320BDE8F88F2868800162
:101F0000F4D427E00128F7D0D9F80000E26900F402
:101F1000800191421CD1226A00F03F01914217D109
:101F200047F6C071626A0140B1EB821F10D1A26A0C
:101F30004FF0FF3300F4403103EB5202B1EB024F9C
:101F400006D194F82C1000F07060B0EB016F01D056
:101F50000120D1E70020CFE70438024000004742CB
:101F6000800E4742007000400000FFFF10B5401E89
:101F7000B0F1807F01D3012010BD4FF0E0246061FB
:101F80000F21601700F039FA0020A06107202061BE
:101F9000002010BDFEE701684A69D24352050FD404
:101FA0006FF480624A61002140F8301F20224273A2
:101FB0008173026942F004020261017301207047DB
:101FC000002070472DE9F84F0446C06A1E4693462C
:101FD0000D4621680A6842F480620A60082807D02A
:101FE000012805D010F5803F02D0206B112804D1C4
:101FF0002068016841F4807101604FF001195B466F
:10200000002249462046009600F0C6F84FF40078BA
:1020100040B120680068C00501D5C4F840800320A5
:10202000BDE8F88F2069DFF884A0B0F5804F0FD0AD
:102030000620216800EAD51747F0F0000861334612
:102040005A460AF10601204600F0DAF858BB03E0D0
:10205000E8B240F001001CE02168E8B208613346B4
:102060005A465146204600F0CBF8E0B92068416955
:1020700081690091016841F4807101605B46002232
:1020800049462046009600F087F80028C1D147F065
:10209000F1002168086133465A465146204600F057
:1020A000AFF80028BCD00120BAE700000200010010
:1020B000F8B50446C06A1E460D461746082807D0E4
:1020C000012805D010F5803F02D0206B122804D1E2
:1020D0002068016841F480710160134600224FF0CE
:1020E00001112046009600F057F840B120680068C2
:1020F000C00502D54FF4007020640320F8BD2069AC
:10210000B0F5804F0ED00620216800EAD51040F0CF
:10211000F000086133463A460B49204600F070F85B
:1021200078B902E005F0FE0000E0E8B2216808613D
:10213000054933463A46891F204600F061F80028D9
:10214000DCD00120F8BD00000800010070B5164683
:102150000D4604460DE02046FFF71DFF08B10120A3
:1021600070BD681C05D0FFF783F8801BA84207D814
:1021700035B120684069C0434007ECD4002070BDF1
:10218000002044F8300F20216173A073216941F0D1
:10219000200121612073E2E72DE9F0471E469046B9
:1021A0000D460446C1F30747DDF8209008E0701C97
:1021B00006D0FFF75DF8A0EB0900B0420FD876B16A
:1021C0002068012F18D0806925EA00000004000C67
:1021D00014D000214145EAD00020BDE8F08700205E
:1021E00044F8300F20216173A073216941F0200170
:1021F000216120730120F0E74069E5E70121E9E76B
:102200002DE9F0479A4691460E46044600254FF0C8
:102210002008C1F3074725E020684069C043400516
:1022200014D42068016841F40071016021686FF4E2
:1022300080604861256384F83D8084F83E50206CBE
:1022400040F00400206484F83C501FE0B9F1FF3FE7
:1022500008D0FFF70DF8A0EB0A0149450CD8B9F1F9
:10226000000F09D02068012F13D0806926EA0000F2
:102270000004000C0BD0CFE744F8305F84F80D80E9
:10228000A573206940F02000206125730120BDE87E
:10229000F0874069EAE72DE9F041002590460E46B7
:1022A0000446202717E04069C043C0060CD454F808
:1022B000301B6FF01000486144F810596777A5771C
:1022C000206A2062257717E0FEF7D2FFA0EB080016
:1022D000B04208D83EB120684169C9434906E2D4FA
:1022E0000020BDE8F08144F8305F6773A573206972
:1022F00040F02000206125730120F2E770B51646FA
:102300000D4604460DE02046FFF745FE08B10120CA
:1023100070BD681C05D0FEF7ABFF801BA84207D834
:1023200035B120684069C0430006ECD4002070BD80
:10233000002044F8300F20216173A073216941F01F
:10234000200121612073E2E7FEE7FEE77047704756
:10235000FFF7EEBA30B593B030216846FEF7B6F815
:1023600014210CA8FEF7B2F81D480025016841F0C1
:1023700080510160006800F0805011901948016898
:1023800041F4804101600068022400F48040119013
:102390000120039010200490009406940820CDE9B9
:1023A0000750A820CDE9090404200B906846FFF7E8
:1023B00027FC08B172B6FEE70CA90F2081E83100B6
:1023C0004FF4A0500F904FF48050109005210CA8AE
:1023D000FFF73AFB002801D072B6FEE713B030BD1C
:1023E00040380240007000400248016841F470012A
:1023F0000160704788ED00E0FEE70907090E00283C
:1024000004DB00F1E02080F80014704700F00F00BA
:1024100000F1E02080F8141D70470021022000F038
:102420008DB800002DE9F04381462DED028BADF50E
:10243000217D9FED208B002480AEE846351904F104
:102440008000C0B20122294600F038F804F1810072
:10245000691CC0B2012200F031F86D78305D05F0E2
:10246000070140EA012000F04BFA53EC182B00F072
:102470005BFA41EC100B04EBD470411008EBC10780
:10248000280787ED000B05D551EC100B00F02CFA56
:10249000C7E90001A41C802CD0DB4FF40072694610
:1024A0004846FDF7E1FF0DF5217DBDEC028BBDE84F
:1024B000F0830000000000000000D03FF7B582B0BC
:1024C000094D642416460F460094012302AA297878
:1024D0000648FFF743F9009433463A462978034803
:1024E000FFF74CF805B0F0BD0000002020000020F0
:1024F0003F21012000F022B80146002000F01EB864
:1025000010B500240A23012221460A48FEF780FF65
:1025100060B1641CE4B2FF2CF4D30020FFF7ECFFA1
:10252000FFF7E6FFBDE81040FFF777BF02480470F1
:10253000F3E7000020000020000000201CB58DF80B
:1025400004000A20009034488DF805100223017819
:1025500001AA3248FFF702F901004ED0012918D034
:10256000032918D0022918D02DA0FDF701FF2B4810
:10257000FEF784FE002840D0012812D0022812D095
:10258000042812D0082812D0102812D0202812D0E7
:1025900014E029A002E031A000E03AA0FDF7E8FE37
:1025A000E5E741A008E046A006E04BA004E04FA00C
:1025B00002E053A000E057A0FDF7DAFE1748FEF74F
:1025C0005FFEA8B1202813D0242813D0212815D0CD
:1025D000222815D0282815D0292815D02A2815D02A
:1025E000602815D0A02815D0E02806D14FA002E021
:1025F00054A000E059A0FDF7BBFE1CBD5DA0FAE7AA
:1026000062A0F8E767A0F6E76CA0F4E773A0F2E732
:102610007AA0F0E77FA0EEE7000000202000002075
:10262000556E6B6E6F776E20737461747573206472
:10263000617461202564000048414C5F4932435F6A
:102640004D61737465725F5472616E736D6974204D
:1026500048414C5F4552524F520D0A0048414C5F71
:102660004932435F4D61737465725F5472616E737A
:102670006D69742048414C5F54494D454F55540D88
:102680000A00000048414C5F4932435F4D6173745A
:1026900065725F5472616E736D69742048414C5F5E
:1026A000425553590D0A000048414C5F4932435F7F
:1026B0004552524F525F424552520D0A00000000EF
:1026C00048414C5F4932435F4552524F525F41523D
:1026D0004C4F0D0A0000000048414C5F4932435FF7
:1026E0004552524F525F41460D0A000048414C5F2F
:1026F0004932435F4552524F525F4F56520D0A00C6
:1027000048414C5F4932435F4552524F525F444DFE
:10271000410D0A0048414C5F4932435F4552524FD8
:10272000525F54494D454F55540D0A0048414C5F86
:102730004932435F53544154455F4552524F520D05
:102740000A00000048414C5F4932435F53544154F2
:10275000455F52455345540D0A00000048414C5F07
:102760004932435F53544154455F425553590D0A12
:102770000000000048414C5F4932435F53544154CC
:10278000455F425553595F54580D0A0048414C5F0C
:102790004932435F53544154455F425553595F5248
:1027A000580D0A0048414C5F4932435F535441542D
:1027B000455F4C495354454E0D0A000048414C5F5B
:1027C0004932435F53544154455F425553595F5416
:1027D000585F4C495354454E0D0A000048414C5F28
:1027E0004932435F53544154455F425553595F52F8
:1027F000585F4C495354454E0D0A000048414C5F08
:102800004932435F53544154455F41424F52540D46
:102810000A00000048414C5F4932435F5354415421
:10282000455F54494D454F55540D0A008A68002AAA
:1028300001DCFEF718B8521E8A604A68C0B2531C09
:102840004B60107070470000ADF5007DFFF778F821
:10285000FFF780FD1E480024016841F0020101607D
:1028600000681C4900F0020000901B484FF48045AE
:1028700001601A49C0E90114C0E90345446184615B
:10288000C4610462FEF700FD08B172B6FEE71248AB
:102890001349543001601349C0E90114C0E90345EC
:1028A00044618461C4610462FEF7EEFC08B172B653
:1028B000FEE7FFF725FE4FF400746846FFF7B2FD10
:1028C000054822466946A830FDF7CEFDF5E7000031
:1028D000303802400054004020000020801A0600DA
:1028E00000580040A086010081F00041704780F050
:1028F0000040704721F00041704720F000407047D1
:10290000B0FA80F310FA03F10AD0C3F11D0303F506
:1029100080634FEA41504FEA035202EBD1217047E6
:102920004FF0000070470000DFF848C170B51CEAA6
:10293000111E1EBF1CEA13159EEA0C0F95EA0C0F20
:1029400000F06F8081EA030423EA4C134EEAD47E40
:1029500021EA4C1141F4801143F48013AE44A1FBF1
:10296000024CA0FB0365AEF17F7E361955EB0C05DA
:10297000A1FB034C4CF10003A0FB021C16EB0C0660
:10298000654153F10003094218BF46F0010613F4F4
:10299000007F0BD14FEA03314FEA0530340341EA9F
:1029A000155140EA16506FF003020AE04FEAC321C6
:1029B0004FEAC520F40241EA555140EA56506FF003
:1029C000020202EB2E4201EB025585EACE710AD0DB
:1029D0005FEA440C18BF24F0004450F1000041F1BC
:1029E000000120EAD47040F2FE7C624500D270BD46
:1029F000A84214BF4FF080444FF04044002E08BF5F
:102A00000024BEF1806FA8BFA1F1C041BDE87040B5
:102A100080F282804FF0000001F1C04101F00041DE
:102A200070479EEA0C0F0CEA131518BF95EA0C0FBD
:102A300006D04FF0000081EA030E0EF0004170BD99
:102A400000F01CF88900013E00F007B800F009B85A
:102A50004FEA430C5FEA5C5C08D081EA030100F0B6
:102A60005BB84FEA410C5FEA5C5CF6D14FF00000C6
:102A7000014970470000FF070000F87F0EF1020EC9
:102A80002EF0030E5EF8046B364205D4012A43EBA8
:102A9000030515F5001F12D8012841EB010C1CF5A8
:102AA000001F0CD80ED14FEAD17C15F5001F0CEB9E
:102AB0004C0C0CF1020C08BF4CEBD37C04E04FF043
:102AC000080C01E04FEAD37C0CEB4C0526FA05F626
:102AD00006F00706B6F1040C06D20EEB860CBDE834
:102AE00070404CF0010C6047DFE80CF0090B02026B
:102AF0004FF000414FF00000A1F5002170BD1946D4
:102B00001046012851EB010418BFD4F5001484BF0E
:102B1000002001F0004170BD0808A0F500114FEA47
:102B2000310170474FF04070E1EE100A704700002D
:102B3000000000000000010203040607080900006D
:102B40000000010203043A7474003A7474003A7489
:102B500074000000742B000800000020200000001A
:102B6000C4010008942B000820000020080A00007F
:102B7000E00100080000000001000000100000005B
:102B8000000000000024F40000000000000000002D
:042B90000000000041
:040000050800018965
:00000001FF
